:020000040800F2
:100000003437002089010008451B0008451B000803
:10001000451B0008451B0008451B0008451B000840
:10002000451B0008451B0008451B0008451B000830
:10003000451B0008451B0008451B0008451B000820
:10004000451B0008451B0008451B0008451B000810
:10005000451B0008451B0008451B0008451B000800
:10006000451B0008451B0008451B0008451B0008F0
:10007000451B0008451B0008451B0008451B0008E0
:10008000451B0008451B0008451B0008451B0008D0
:10009000451B0008451B0008451B0008451B0008C0
:1000A000451B0008451B0008451B0008451B0008B0
:1000B000451B0008451B0008451B0008451B0008A0
:1000C000451B0008451B0008451B0008451B000890
:1000D000451B0008451B0008451B0008451B000880
:1000E000451B0008451B0008451B0008451B000870
:1000F000451B0008451B0008451B0008451B000860
:10010000451B0008451B0008451B0008451B00084F
:10011000451B0008451B0008451B0008451B00083F
:10012000451B0008451B0008451B0008451B00082F
:10013000451B0008451B0008451B0008451B00081F
:10014000451B0008451B0008451B0008451B00080F
:10015000451B0008451B0008451B0008451B0008FF
:10016000451B0008451B0008451B0008451B0008EF
:10017000451B0008451B0008451B0008451B0008DF
:10018000451B0008451B000880B582B000AF00F099
:10019000E1F900F00BFC00F025FA412000F0EEFB45
:1001A0001A4B3B6004E03B681A1D3A6000221A605B
:1001B0003B68174A9342F6D3422000F0DFFB154B11
:1001C0007B60154B3B6007E03B681A1D3A607A681C
:1001D000111D796012681A603B68104A9342F3D38C
:1001E000432000F0CBFB01F087F8442000F0C6FB71
:1001F00002F036FA462000F0C1FB0D2000F0BEFBF5
:100200000A2000F0BBFB02F073FA00BF000C0020D4
:1002100038330020ACD4030800000020840B0020F9
:1002200080B483B000AF174B1B687B607B6843F0E2
:1002300001037B60134A7B681360134B00221A6032
:10024000104B1B687B607B6823F0847323F480333E
:100250007B600C4A7B6813600C4B0D4A1A60094B9B
:100260001B687B607B6823F480237B60054A7B6886
:100270001360084B00221A600C37BD465DF8047B02
:10028000704700BF0038024008380240043802407E
:10029000103000240C38024080B483B000AF0A4B09
:1002A0001B687B607B686FEA53236FEA43237B60A4
:1002B0007B6843F480037B60034A7B6813600C37E0
:1002C000BD465DF8047B70473038024080B483B08F
:1002D00000AF074B1B687B607B6843F080037B604B
:1002E000034A7B6813600C37BD465DF8047B70479A
:1002F0003438024080B400AFBD465DF8047B7047DF
:1003000080B483B000AF114B1B687B607B6843F403
:1003100000337B607B6843F480237B607B6843F41D
:1003200000237B607B6843F480137B607B6843F42D
:1003300000137B607B6843F080537B60034A7B68DB
:1003400013600C37BD465DF8047B704740380240AF
:1003500080B483B000AF0F4B1B687B607B6843F0B9
:1003600020037B607B6843F480737B607B6843F48D
:1003700000737B607B6843F480537B607B6843F44D
:1003800080437B60034A7B6813600C37BD465DF891
:10039000047B70474438024080B582B000AF474BC1
:1003A0001B687B607B6843F480337B60434A7B68D7
:1003B0001360434B3B6009E0404B1B6803F4003380
:1003C000002B00D005E03B68013B3B603B68002B05
:1003D000F2DC3B68002B6EDD3A4B1B687B607B6870
:1003E00043F080537B60374A7B681360364B1B6851
:1003F0007B607B6843F480437B60334A7B68136097
:10040000324B1B687B607B6823F0F0037B602F4AD4
:100410007B6813602D4B1B687B607B6823F4604313
:100420007B607B6843F400437B60284A7B681360F1
:10043000264B1B687B607B6823F4E0537B607B6802
:1004400043F4A0537B60214A7B681360204B7B60A0
:10045000204A7B681360194B1B687B607B6843F004
:1004600080737B60154A7B68136000BF134B1B6869
:1004700003F00073002BF9D040F205737B60164A3D
:100480007B681360114B1B687B607B6823F0030360
:100490007B607B6843F002037B600C4A7B681360DF
:1004A00000BF0A4B1B6803F00C03082BF9D100F0C6
:1004B00077F800F05BF80837BD4680BD0038024091
:1004C0001482190040380240007000400838024091
:1004D0001954400704380240003C024080B500AF88
:1004E000FFF7DAFEFFF7F2FEFFF704FFFFF708FF62
:1004F000FFF72EFF80BD00BF80B582B000AF0020A7
:1005000000F0D8FF0F4B1B687B607B680E4A93425C
:1005100015D07B680D4A934211D0012000F0EAFF0C
:100520000B4800214FF4803201F0E4FA08484FF400
:100530008031002201F0DEFA002000F0DBFF0837F6
:10054000BD4680BD50280040EEFECEFAEFFECEFA4A
:100550007038024080B500AFFFF762FEFFF7CCFFB6
:10056000FFF71AFFFFF7BAFF80BD00BF80B500AFED
:10057000012000F0BFFF09480021012201F08EFA9E
:1005800001E000F04FFF054B1B889BB203F0020314
:10059000002BF6D0002000F0ADFF80BD7038024087
:1005A00080B500AF06480021012201F0A3FA00BF88
:1005B000034B1B6803F00203002BF9D080BD00BF82
:1005C0007438024080B500AF02480121002201F0DA
:1005D00091FA80BD7438024080B400AFBD465DF82A
:1005E000047B704780B500AFFFF7F6FF80BD00BF0A
:1005F00080B58EB000AF78607B6803F0F0031B0914
:100600003B623B6A082B02D96FF015033FE1A24A17
:100610003B6A52F82330FB617B6803F00F03BB6138
:100620007B6803F44023B3F5002F17D0B3F5402FB8
:1006300017D0B3F5802F02D000237B6214E07B68D3
:1006400003F48073002B14BF01230023DBB278680E
:10065000194600F035F901237B6205E002237B6235
:1006600002E003237B6200BFEFF3108372B67B814D
:100670007B89FB82FB691B687B63BB695B001A4655
:1006800003239340DB431A467B6B13407B63BB69B8
:100690005B001A467B6A93407A6B13437B63FB696A
:1006A0007A6B1A6000233B637B6A032B0FD07B6855
:1006B00003F44033B3F5803F03D0B3F5003F03D0DC
:1006C00005E001233B6302E002233B6300BFFB69BB
:1006D0000C331B687B63BB695B001A4603239340A2
:1006E000DB431A467B6B13407B63BB695B001A4696
:1006F0003B6B93407A6B13437B63FB690C331A4665
:100700007B6B13607B6A022B05D17B6803F470431B
:100710001B0B3B6301E000233B63BB69072B04D841
:100720002023FB62BB69BB6204E02423FB62BB693C
:10073000083BBB62FA69FB6A13441B687B63BB6AB4
:100740009B001A460F239340DB431A467B6B1340F2
:100750007B63BB6A9B001A463B6B93407A6B1343E7
:100760007B63FA69FB6A13441A467B6B13607B6AEE
:10077000012B02D07B6A022B18D17B6803F4406303
:10078000B3F5006F0BD0B3F5406F0BD0B3F5806FAE
:1007900002D000233B6308E001233B6305E0022312
:1007A0003B6302E003233B6300BF01E000233B63A4
:1007B000FB6908331B687B63BB695B001A46032334
:1007C0009340DB431A467B6B13407B63BB695B0042
:1007D0001A463B6B93407A6B13437B63FB69083388
:1007E0001A467B6B1360FB6904331B687B63BB6930
:1007F000012202FA03F33B637B6A012B02D07B6A7E
:10080000022B09D17B6803F40073002B04D07A6BB0
:100810003B6B13437B6304E03B6BDB437A6B13401E
:100820007B63FB6904331A467B6B13607B6A012B85
:1008300025D07B6803F48073002B20D0BB6903F0C4
:100840000C02164B13443B613B691B687B63BB691D
:1008500003F003039B00FB600F22FB6802FA03F323
:10086000DB431A467B6B13407B633A6AFB6802FAF0
:1008700003F37A6B13437B633B697A6B1A60FB8AE1
:100880003B813B8913F0010F00D162B6002318466B
:100890003837BD4680BD00BF585C030808380140AA
:1008A00080B582B000AF78607B68DBB27B6078682F
:1008B000FFF79EFE034618460837BD4680BD00BFC1
:1008C00080B487B000AF78600B46FB707B6803F0A4
:1008D000F0031B093B613B69082B1CD8104A3B699C
:1008E00052F82330FB607B6803F00F03BB60FB789A
:1008F000002B05D0BB68012202FA03F37B6105E0FF
:10090000BB6810331A46012393407B61FB681833A0
:100910001A467B6913601C37BD465DF8047B70473F
:10092000585C030880B487B000AF78607B6803F040
:10093000F0031B097B617B69082B16D80E4A7B6983
:1009400052F823303B617B6803F00F03FB603B6987
:1009500010331B68FA68012101FA02F21340002BE0
:1009600014BF01230023DBB200E0002318461C372C
:10097000BD465DF8047B7047585C030880B483B0C3
:1009800000AF0346FB7100BF064B1B6803F08003FA
:10099000002BF9D0044AFB7913600C37BD465DF893
:1009A000047B7047005000400450004080B582B086
:1009B00000AF204800214FF4801201F09BF81E4840
:1009C000FFF716FE1D48FFF713FE1D4B1B687B60EB
:1009D0007B6823F47D537B60194A7B681360194B55
:1009E0001B687B607B6823F4BB5323F01C037B6094
:1009F000144A7B681360144B1B687B607B6823F48C
:100A0000E06323F001037B600F4A7B6813600F4BA8
:100A100040F26D121A600B4B1B687B607B6843F4DD
:100A2000005343F00C037B60064A7B681360083771
:100A3000BD4680BD403802402C8C0900328C090034
:100A4000105000400C50004014500040085000402E
:100A500080B483B000AF786039607B681A6D3B6802
:100A600013441B6818460C37BD465DF8047B70477D
:100A700080B485B000AFF860B9607A60FB681A6D29
:100A8000BB6813441A467B6813601437BD465DF893
:100A9000047B704780B584B000AF78600B467B80E4
:100AA0007B687A889A8778680C21FFF7D1FFF86015
:100AB000FB6823F4D073FB607B8803F4D073FA687F
:100AC0001343FB6078680C21FA68FFF7D1FF786860
:100AD0001421FFF7BDFFF860FB6823F00103FB6002
:100AE0007B8803F00103FA681343FB6078681421E4
:100AF000FA68FFF7BDFF1037BD4680BD80B584B0F2
:100B000000AF78600B467B80EFF3108372B6BB8139
:100B1000BB89FB817B8878681946FFF7BBFFFB899F
:100B20007B817B8913F0010F00D162B61037BD467F
:100B300080BD00BF80B586B000AF78603960EFF34C
:100B4000108372B67B817B89FB823B68002B17D0B8
:100B500078680C21FFF77CFF386178681421FFF773
:100B600077FFF8603B699BB203F4D0739AB2FB68DD
:100B70009BB203F001039BB213439AB23B681A8005
:100B800078680021FFF786FFFB8A3B813B8913F0E1
:100B9000010F00D162B61837BD4680BD80B588B060
:100BA00000AF78607B681B6B3B6138690C21FFF7F5
:100BB0004FFF78613B69DA6C3B695B6C5B08B2FBA9
:100BC000F3F3FB60FB685B09FB61FB695B01FA689F
:100BD000D31A01335B08BB61FB69002B0ED17B6923
:100BE00043F400437B61FB681B09FB61FB691B014C
:100BF000FA68D31A01335B08BB6103E07B6923F415
:100C000000437B61FB691B01BB60BA68BB6913438E
:100C1000BB6038690C217A69FFF72AFF386908211F
:100C2000BA68FFF725FF7B6923F4B0537B613B690A
:100C300093F84130012B04D17B6943F4C0637B619D
:100C400008E03B6993F84130022B03D17B6943F400
:100C500080637B613B6993F84230092B09D03B6983
:100C600093F84230082B08D13B6993F84130002BB0
:100C700003D07B6943F480537B6138690C217A6926
:100C8000FFF7F6FE38691021FFF7E2FE78617B6915
:100C900023F440537B613B6993F84330002B03D02E
:100CA0007B6943F400537B61386910217A69FFF74F
:100CB000DFFE38691421FFF7CBFE78617B6923F4EE
:100CC00040737B61386914217A69FFF7D1FE2037C0
:100CD000BD4680BD80B586B000AF78600B46FB7026
:100CE0007B681B6BFB60FB681B6D214A93421CD029
:100CF0001F4A934206D81F4A93420AD01E4A934283
:100D00000DD031E01D4A934215D01D4A934218D0B0
:100D10002AE04FF400337B611A4B3B6116E04FF43D
:100D200080237B61174B3B6110E04FF400237B6114
:100D3000144B3B610AE04FF480137B61114B3B6124
:100D400004E020237B61104B3B6100BFFB78002B4C
:100D500005D0386900217A6900F0CCFE04E03869DA
:100D60007969002200F0C6FE1837BD4680BD00BF7D
:100D7000004C00400044004000480040005000404B
:100D800000140140403802404438024080B584B02D
:100D900000AF78607B681B6BBB6078680121FFF750
:100DA00099FFBB685B6D1846FFF722FCBB689B6D23
:100DB0001846FFF71DFCB8681021FFF749FEF860E0
:100DC000FB6823F47D53FB60BB6893F84330002B32
:100DD00003D0FB6843F40053FB60B8681021FA6845
:100DE000FFF746FEB8680C21FFF732FEF860FB689B
:100DF00023F4BE73FB60B8680C21FA68FFF738FE75
:100E0000B8681421FFF724FEF860FB6823F4E06360
:100E100023F00103FB60B8681421FA68FFF728FE8D
:100E20007868FFF7BBFEB8680C21FFF711FEF86089
:100E3000FB6843F4005343F00C03FB60B8680C21DB
:100E4000FA68FFF715FEBB6800229A87BB6801228B
:100E500083F84020002318461037BD4680BD00BFF0
:100E600080B584B000AF78607B681B6BFB60FB686B
:100E7000002283F84020F8680021FFF75BFE7868C5
:100E80000021FFF727FFF8680C21FFF7E1FDB860AC
:100E9000BB6823F4005323F00C03BB60F8680C21FB
:100EA000BA68FFF7E5FDFB685B6D1846FFF7F8FCD5
:100EB000FB689B6D1846FFF7F3FC1037BD4680BDFD
:100EC00080B584B000AF78607B681B6BFB60FB680B
:100ED00093F8483018460949FA6801F07DFDB8607A
:100EE000BB68002B05D1FB6893F84830184601F029
:100EF0001BF8BB6818461037BD4680BD310F00088F
:100F000080B584B000AF78607B681B6BFB60FB68CA
:100F100093F84830184600F0DFFFFB6893F848303C
:100F200018460021002201F057FD1037BD4680BD54
:100F300080B588B000AFF860B9607A607B687B618B
:100F40007B69002B04D1284840F20B7100F03AFD78
:100F50000123FB760023FB613BE00023FB767869ED
:100F60000021FFF775FD03469AB27B69DA877B693A
:100F7000DB8F03F02003002B0CD07B699B8F03F0E9
:100F80002003002B06D07B69184605F0F7FD0123EE
:100F9000FB7609E07B69DB8F03F00E03002B03D0A7
:100FA00078690421FFF754FD7B69DB8F03F0800330
:100FB000002B0BD07B699B8F03F08003002B05D0A7
:100FC0007B69184605F082FD0123FB76FB6901333E
:100FD000FB61FB69FF2B02DCFB7E002BBDD10023F4
:100FE00018462037BD4680BDC45C030880B58AB072
:100FF00000AFF860B9607A60FB689B683B623B6A4F
:101000001B69FB61FB691B6BBB6100237B62BB68D7
:1010100040F20112934203D0B3F5817F32D072E0E7
:101020007B687B617B69002B03D16FF015037B62CA
:101030006DE0BB695B6C7869194606F0F5FDBB692C
:1010400093F84130002B01D0102200E00022BB6950
:1010500093F84130012B01D1202300E000231343FA
:101060009AB2BB6993F84330002B01D0042300E00F
:10107000002313439BB243F003039BB29AB27B69F4
:101080009A8044E07B683B613B69002B03D16FF0A1
:1010900015037B623BE03B699B8803F00303032B52
:1010A00003D06FF015037B6231E03B699B8803F04E
:1010B0001003002B0CD03B699B8803F02003002B0E
:1010C00001D0012200E00222BB6983F8412003E045
:1010D000BB69002283F841203B699B8803F004032D
:1010E000002B14BF01230023DBB21A46BB6983F82F
:1010F0004320386906F084FD0246BB695A64F869EA
:10110000FFF74CFD03E06FF018037B6200BF7B6AC2
:1011100018462837BD4680BD80B584B000AF7860E2
:1011200039607B681B6BFB60F8680421FFF790FC5B
:10113000B860FB68DB8F1B041A46BB681A433B6828
:101140001A60FB680022DA87BB68DBB218461037EA
:10115000BD4680BD80B586B000AF78600B46FB70A1
:101160007B681B6B3B61EFF3108372B6BB81BB895D
:10117000FB813B699B8FFB82FB78002B04D0FB8AB1
:1011800043F02003FB8205E0FB8A23F4907323F0F5
:101190000103FB82FB8A38691946FFF7AFFCFB8924
:1011A0007B817B8913F0010F00D162B61837BD46F1
:1011B00080BD00BF80B584B000AF78607B681B6BDA
:1011C000FB60F8680021FFF743FC034603F02003AF
:1011D000002B14BF01230023DBB218461037BD4695
:1011E00080BD00BF80B584B000AF786039607B6897
:1011F0001B6BFB603B68F86804211A46FFF738FC5C
:101200001037BD4680BD00BF80B586B000AF7860A6
:101210000B46FB707B681B6B7B61EFF3108372B630
:10122000FB81FB897B82FB78002B0DD07B699B8F38
:1012300043F080033B823B8A78691946FFF75EFCE6
:10124000786805F043FC08E07B699B8F23F08003FE
:101250009BB278691946FFF751FC7B8ABB81BB8939
:1012600013F0010F00D162B61837BD4680BD00BF34
:1012700080B584B000AF78607B681B6BFB60F8685A
:101280000021FFF7E5FB034603F08003002B14BFAA
:1012900001230023DBB218461037BD4680BD00BFD6
:1012A00080B485B000AF78607B68013BFB60FB6871
:1012B000002B08DBFB68052B05DC0E4AFB6852F8A7
:1012C0002330002B01D100230DE00A4AFB6852F8BD
:1012D000233093F84030002B01D1002303E0054A6E
:1012E000FB6852F8233018461437BD465DF8047B7E
:1012F000704700BFAC5C030880B582B000AF00232C
:101300007B6010E00D4A7B6852F82330002B07D039
:101310000A4A7B6852F8233018460021FFF70AFC7E
:101320007B6801337B607B68052BEBD9044B184647
:10133000FFF72CFD0837BD4680BD00BFAC5C03083D
:101340001401002080B586B000AF00233B611E4B26
:101350001E48194605F040FB1B4B1D48194605F079
:101360003BFB01233B613B4618461A4906F036FB1E
:1013700000237B6122E0184A7B6952F82330002B5E
:1013800000D118E0144A7B6952F82330DB78002B37
:1013900000D010E03B695A1C3A61DBB23033DBB25B
:1013A0007B720D4A7B6952F823301A463B46184639
:1013B000114605F011FB7B6901337B617B69052BCD
:1013C000D9D91837BD4680BD14010020D85C030868
:1013D000E85C0308F45C0308AC5C030880B584B0E7
:1013E00000AF78600E4BFB6007F10A03F8681946FE
:1013F000FFF7A0FB7B680A2B02D10D20FFF7BEFA96
:101400007B68DBB21846FFF7B9FA7B89F8681946A2
:10141000FFF774FB7B6818461037BD4680BD00BFE0
:101420001401002080B400AF044B1B680133034A51
:101430001360BD465DF8047B704700BF00150020B7
:1014400080B483B000AF0346FB71FB7903F18043A6
:1014500003F5E0431B6818460C37BD465DF8047B76
:10146000704700BF80B483B000AF03463960FB71A2
:10147000FB7903F1804303F5E0431A463B681360B0
:101480000C37BD465DF8047B704700BF80B584B063
:1014900000AF0346B9607A60FB73FB7B03F18043C6
:1014A00003F5E0431846B9687A6800F023FB10376B
:1014B000BD4680BD80B584B000AF0346FB710020FF
:1014C000FFF7BEFF0346FB81FB8923F48073FB819A
:1014D000FB8900201946FFF7C5FF054B00221A8043
:1014E000FB79184600F006F81037BD4680BD00BFF6
:1014F0000415002080B586B000AF0346FB710023C1
:10150000FB75EFF3108372B6FB81FB89BB82002071
:10151000FFF796FF03467B827B8A03F48073002BE0
:1015200014BF01230023DBB27B74FB79002B10D0A6
:10153000264B1B884FF6FF72934203D12448DB21D0
:1015400000F040FA214B1B8801339AB21F4B1A80DE
:1015500009E01E4B1B88002B05D01C4B1B88013B50
:101560009AB21A4B1A807B7C002B0DD0174B1B882C
:10157000002B09D17B8A23F480737B827B8A002035
:101580001946FFF76FFF11E07B7C002B0ED10F4B4C
:101590001B88002B0AD07B8A43F480737B827B8A72
:1015A00000201946FFF75EFF0123FB75BB8ABB8154
:1015B000BB8913F0010F00D162B6FB7D002B02D076
:1015C000042000F01DFA1837BD4680BD0415002028
:1015D000005D030880B584B000AF03460A46FB7186
:1015E0001346BB71FB79002B07D14FF48073FB814D
:1015F00000BFBB79002B0AD002E06FF015030DE0AD
:10160000FB89042000211A46FFF740FF05E0FB8913
:10161000042019460022FFF739FF0023184610372F
:10162000BD4680BD80B500AF0420FFF709FF03462B
:1016300003F00203002B14BF01230023DBB2184682
:1016400080BD00BF80B500AF0420FFF7F9FE034660
:1016500003F00103002B14BF01230023DBB2184663
:1016600080BD00BF80B584B000AF0346FB7104208D
:10167000FFF7E6FE0346FB81FB8923F40073FB8141
:10168000FB79002B02D04FF4007200E00022FB89AE
:1016900013439BB2FB81FB8904201946FFF7E2FE4E
:1016A000FB79002B08D000BF0420FFF7C9FE0346DA
:1016B00003F00803002BF7D01037BD4680BD00BFF4
:1016C00080B483B000AF6B467B607B6818460C37F4
:1016D000BD465DF8047B7047F0B58DB008AF78600B
:1016E00039607B6823F01F03FB602BE0FB68BB6065
:1016F000BB68D3F800E0BB6804331E68BB680833DE
:101700001D68BB680C331C68BB6810331868BB6865
:1017100014331968BB6818331A68BB681C331B681C
:10172000CDF800E00196029503940490059106928D
:10173000079300200749084AFB6806F029FAFB686E
:101740002033FB60FA683B689A42CFD31437BD461A
:10175000F0BD00BF145D0308885E0308F0B58BB0D0
:1017600008AF3F4B1B68002B77D03D4B1B682C33D9
:10177000D3F800E03A4B1B6830331E68384B1B68C7
:1017800034331D68364B1B6838331C68344B1B6878
:1017900008331868324B1B680C331968304B1B68D0
:1017A00010331A682E4B1B6814331B680096019582
:1017B00002940390049105920693002029492A4A35
:1017C000734606F0E5F9264B1B681833D3F800E0A2
:1017D000234B1B681C331E68214B1B6820331D687C
:1017E0001F4B1B6824331C681D4B1B683C33186857
:1017F0001B4B1B6819681A4B1B6840331A68184B3F
:101800001B6844331B680096019502940390049171
:101810000592069300201549134A734606F0B8F95D
:101820000F4B1B6848331C680D4B1B6804331A6848
:10183000EFF314837B607B680092019300200C49D6
:10184000094A234606F0A4F9054B1B6828331B6898
:1018500000200849044A06F09BF90C37BD46F0BD4C
:1018600080270020485D0308A85E03087C5D03080C
:10187000B05D0308DC5D030880B586B000AF3A4B6D
:101880001B68BB60FFF71CFF7861BB689B89002B5E
:1018900007D1364B1B68043B3B614FF48063FB6010
:1018A00005E0BB681B6B3B61BB689B6AFB60304B10
:1018B0007B604FF400633B6000202E492E4A7B6919
:1018C00006F066F900202D492B4A06F061F9002048
:1018D0002B49294A7B6806F05BF900202949264AF2
:1018E0003B6806F055F97A697B689A4209D87A68AC
:1018F0003B68D21A7B699A4203D278697968FFF70C
:10190000EBFE214B1B68002B09D01F4B1B681B688B
:101910007B6100201749184A7B6906F039F90020DD
:101920001A49154A06F034F900201549124A3B6954
:1019300006F02EF9002013490F4AFB6806F028F93B
:101940007A693B699A4209D83A69FB68D21A7B697D
:101950009A4203D278693969FFF7BEFEFFF7FEFEAF
:101960001837BD4680BD00BF94270020C25E030823
:10197000001E0020F45D0308985E0308085E03085B
:10198000185E03082C5E030880270020405E0308D1
:1019900080B584B000AF7860084B1B68002B04D181
:1019A000074B1B689B89002B04D1EFF3108372B6A1
:1019B000FB81FEE7786801F023FB00BF8027002051
:1019C0009427002080B586B002AF78603960094B5B
:1019D0001B68FB60FB68CC333A68009201930020DF
:1019E0000549064A7B6806F0D3F8FFF745FF01205A
:1019F000FFF7CEFF94270020545E0308B85E03086B
:101A000080B485B000AF78600EE00023FB6002E098
:101A1000FB680133FB60FB6844F24C129342F7DD34
:101A20007B68A3F57A737B607B68B3F57A7FECD82B
:101A30000CE00023FB6002E0FB680133FB60FB6805
:101A4000B3F5D16FF8DB7B68643B7B607B68642B0C
:101A5000EFD80BE00023FB6002E0FB680133FB6082
:101A6000FB68A62BF9DD7B680A3B7B607B680A2B51
:101A7000F0D80BE00023FB6002E0FB680133FB6061
:101A8000FB68102BF9DD7B68013B7B607B68002BDA
:101A9000F0D11437BD465DF8047B704780B485B043
:101AA00000AF78600B467B8013463B80EFF31083DA
:101AB00072B67B817B89FB817B681B88BB817B88BD
:101AC000DB439AB2BB8913409BB2BB81BA893B8886
:101AD0001343BB817B68BA891A80FB893B813B89B0
:101AE00013F0010F00D162B61437BD465DF8047BD8
:101AF000704700BF80B489B000AFF860B9607A6009
:101B0000EFF3108372B6FB82FB8AFB83FB681B68D2
:101B1000BB61BB68DB43BA691340BB61BA697B68D0
:101B20001343BB61FB68BA691A60FB8BBB82BB8A3B
:101B300013F0010F00D162B62437BD465DF8047B77
:101B4000704700BFEFF305801EF0040F02D0EFF3E3
:101B500009818D466A4602F12002EFF310832DE9D8
:101B6000FC4F72B669466C46DFF838D000F0AEFC28
:101B70002146884209D000F12C01B1E8F00F01683C
:101B800021E9F00FB0E8FC4F01E0B1E8FC4F1EF096
:101B9000040F0CBF81F3088881F3098883F3108850
:101BA00070470000001E002080B586B000AFF860CE
:101BB000B9607A60EFF3108372B6FB8203200449A8
:101BC000044A05F0E5FF0448A821FFF7FBFE00BF2B
:101BD000C85E0308B85F0308E45E030880B586B0FA
:101BE00000AFF860B9607A60EFF3108372B6FB82E1
:101BF000054B1B6803200549054A05F0C9FF054848
:101C0000B021FFF7DFFE00BF28ED00E0F85E03081B
:101C1000C45F0308E45E030880B586B000AFF860D7
:101C2000B9607A60EFF3108372B6FB82054B1B68D4
:101C300003200549054A05F0ABFF0548B821FFF729
:101C4000C1FE00BF28ED00E0205F0308D45F030859
:101C5000E45E030880B586B000AFF860B9607A60D2
:101C6000EFF3108372B6FB8203200449044A05F0A7
:101C70008FFF0448C021FFF7A5FE00BF4C5F03089B
:101C8000E85F0308E45E030880B586B000AFF86043
:101C9000B9607A60EFF3108372B6FB8203200449C7
:101CA000044A05F075FF0448C821FFF78BFE00BF0A
:101CB0006C5F0308F85F0308E45E030880B586B034
:101CC00000AFF860B9607A60EFF3108372B6FB8200
:101CD00003200449044A05F05BFF0448D021FFF7C4
:101CE00071FE00BF945F03080C600308E45E030804
:101CF00080B586B000AFF860B9607A603B60FB6881
:101D0000012B02DDFB68612B03DD2548FA21FFF77B
:101D100059FEFB680F2B15DDFB68103B7B617B696F
:101D20005B1140339B001A463B68134403F1E022E9
:101D3000BB681A607B6903F01F0301229A407B682D
:101D40001A6027E0BB68174A1A60FB68042B04D1AD
:101D50007B684FF480321A601CE0FB68052B04D1CD
:101D60007B684FF400321A6014E0FB68062B04D144
:101D70007B684FF480221A600CE0FB680F2B06D1C1
:101D8000BB68094A1A607B6801221A6002E04FF0C2
:101D9000FF3300E0002318461837BD4680BD00BF62
:101DA000E45E030824ED00E010E000E080B584B0BC
:101DB00000AF00237B600CE07B685B1160339B000D
:101DC00003F1E0231A464FF0FF3313607B682033A2
:101DD0007B607B68512BEFDD2E4B2F4A1A602F4B17
:101DE0004FF080321A602E4B4FF080321A602D4B2C
:101DF0004FF080321A602C4B1B680133DB00BB6054
:101E00002A4BFB6006E0FB684FF080321A60FB68EB
:101E10000433FB60BB685A1EBA60002BF3D1244B1D
:101E200000221A600B202349002200F0D5FD032078
:101E30002149002200F0D0FD00F036FA02201F49AF
:101E4000002200F0C9FD04201D49002200F0C4FD5D
:101E500005201C49002200F0BFFD06201A4900227F
:101E600000F0BAFD0E201949002200F0B5FD0C204B
:101E70001749002200F0B0FD00201649002200F0B2
:101E8000ABFD00233B603B6883F3118862B61037DB
:101E9000BD4680BD08ED00E00000000818ED00E040
:101EA0001CED00E020ED00E004E000E000E400E0D4
:101EB00080270020912500080D250008A91B000897
:101EC00079240008DD1B0008191C0008551C0008B7
:101ED000891C0008BD1C000880B586B000AF786082
:101EE00007F1100207F10C03786811461A468023A7
:101EF000FFF7FEFE0346002B13D17B680F2B04DD9A
:101F00003B691A46FB6813600BE03B691B687B6109
:101F1000FB68DB437A6913407B613B691A467B6946
:101F200013601837BD4680BD80B586B000AF7860BD
:101F300007F1100207F10C03786811461A460023D6
:101F4000FFF7D6FE0346002B12D17B680F2B04DD72
:101F50003B691A46FB6813600AE03B691B687B61BA
:101F6000FB687A6913437B613B691A467B6913609E
:101F70001837BD4680BD00BF80B483B000AF786025
:101F80000C37BD465DF8047B704700BF80B500AFDD
:101F90000120FFF7AFFA034BCA221A60014B53220C
:101FA0001A6080BD2428004080B500AF034BFF229B
:101FB0001A600020FFF79EFA80BD00BF2428004071
:101FC00080B584B000AFFFF7E1FF144B1B68BB6026
:101FD000BB6823F02003BB60104ABB6813606FF03E
:101FE0007303FB6000237B600DE00C4B1B68BB6040
:101FF000BB6803F02003002B02D00023FB6006E047
:102000007B6801337B607B68B3F5003FEDD3FFF75E
:10201000CBFFFB6818461037BD4680BD0C2800403A
:1020200080B485B000AF164B1B68BB600023FB601B
:10203000BB6803F04003002B1AD1114B80221A60B9
:102040006FF07303FB6000237B600DE00C4B1B689B
:10205000BB60BB6803F04003002B02D00023FB6091
:1020600006E07B6801337B607B68B3F5803FEDD38E
:10207000FB6818461437BD465DF8047B704700BF07
:102080000C28004080B483B000AF074B1B687B6016
:102090007B6823F080037B60034A7B6813600C3706
:1020A000BD465DF8047B70470C28004080B485B0C5
:1020B00000AF78600023FB6005E0FB680133FB6044
:1020C0007B680A3B7B607B68092BF6DCFB681A01A6
:1020D0007B68134318461437BD465DF8047B704790
:1020E00080B485B000AF78607B681A0913469B0006
:1020F00013445B00FB607B6803F00F02FB68134432
:1021000018461437BD465DF8047B704780B582B031
:1021100000AFFFF73BFFFFF783FF78607B68002B82
:102120000ED10B4B1B683B603B6823F040033B60C8
:10213000074A3B681360074B074A1A60FFF7A2FF84
:10214000FFF732FF7B6818460837BD4680BD00BFE9
:102150000828004010280040FF007F0080B400AF36
:10216000BD465DF8047B704780B588B000AF0A2398
:102170007B610023BB61454B1B683B610120FFF77E
:10218000B9F93B69424A934211D03B69414A9342B3
:102190000DD041484FF440714FF48072FFF7AAFC14
:1021A0003D4800214FF40042FFF7A4FC30E03A4BD9
:1021B0001B68FB60FB6803F44073B3F5807F27D096
:1021C000364B1B68BB60364B1B687B603248002176
:1021D0004FF48032FFF78EFC2F484FF480310022FD
:1021E000FFF788FC2C484FF440714FF48072FFF7E2
:1021F00081FC2A4ABB681360294A7B681360234B21
:10220000234A1A60244800214FF40042FFF772FC71
:102210000020FFF76FF9FFF7D3FEF861FB69002B91
:1022200000D000E000BFFB69002B06D0BB69013382
:10223000BB61BA697B699A42EDDB3B69144A934200
:1022400010D03B69134A93420CD0FFF75FFFF8614F
:102250000120FFF74FF90D4B0D4A1A600020FFF7E0
:1022600049F901E0FFF77AFFFB69002B05D0BB6954
:10227000002B02DD6FF0730303E00A4B01221A709A
:10228000002318462037BD4680BD00BF50280040BF
:10229000EEFECEFAEFFECEFA703802400028004083
:1022A00004280040001E002080B400AF0023184620
:1022B000BD465DF8047B704780B586B000AF78609E
:1022C0002B4B1B687B612B4B1B683B61284B1B68AE
:1022D000FB60FA687B699A4200D100E0F0E73B6955
:1022E00003F07F03FB60F868FFF7FAFE02467B68A5
:1022F0001A603B6903F4FE431B0AFB60F868FFF7B2
:10230000EFFE02467B685A603B6903F47C131B0CAA
:10231000FB60F868FFF7E4FE02467B689A607B6921
:1023200003F03F03FB60F868FFF7DAFE02467B68C4
:10233000DA607B6903F4F8531B0AFB60F868FFF767
:10234000CFFE03465A1E7B681A617B6903F47F0344
:102350001B0CFB60F868FFF7C3FE034603F1640241
:102360007B685A61002318461837BD4680BD00BF00
:10237000042800400028004090B587B000AF786086
:102380007B681B681846FFF791FE04467B685B6814
:102390001846FFF78BFE03461B021C437B689B68B5
:1023A0001846FFF783FE03461B0423433B617B680B
:1023B000DB681846FFF77AFE04467B681B69013329
:1023C0001846FFF773FE03461B021C437B685B69DC
:1023D000643B1846FFF76AFE03461B042343FB6079
:1023E000FB6823F07F4323F0C003FB60FFF7CEFDC3
:1023F000FFF716FE78617B69002B0AD10F4A3B6913
:1024000013600F4AFB681360FFF73CFEFFF7D8FD2F
:1024100078610C4B1B680C4A934208D00120FFF7EF
:1024200069F8084B084A1A600020FFF763F8FFF7C5
:10243000BBFD7B6918461C37BD4690BD0028004097
:102440000428004050280040EFFECEFA80B588B046
:1024500000AF78607A6807F108031046194605F066
:10246000AFFC07F108031846FFF786FF034618463E
:102470002037BD4680BD00BF90B589B002AFF8607F
:10248000B9607A60EFF3108372B6FB8200200949CD
:10249000094A05F07DFB094B1C68094B1B6800933A
:1024A00000200849044A234605F072FB06487621BD
:1024B000FFF788FA1C6003088060030828ED00E03D
:1024C00034ED00E0446003086860030880B584B020
:1024D00000AF786039600C4B1B68FB600A4A3B68B0
:1024E00013607868FFF748FD7868396800F0B0FA43
:1024F000054B1B683B60044AFB6813603B68184649
:102500001037BD4680BD00BF8027002080B588B051
:1025100000AFF860B9607A60BB68FB61FB69443367
:102520001B68023BBB61BB69134A934211D3BB6971
:10253000124A93420DD2BB691B88FB82FB8AB3F51A
:102540005F4F06D1F868B9687A6800F021F8034651
:102550000EE0EFF3108372B6BB82094B1B680020BC
:102560000849094A05F014FB0848AB21FFF72AFA8D
:1025700018462037BD4680BD00000008A2D40308DD
:102580002CED00E08C600308C4600308AC60030815
:1025900080B586B000AFF860B9607A60BB687B61D7
:1025A0007B69002B04D02C4B1A687B699A4203D0BC
:1025B0002A488521FFF706FA7B69DB6A3B613B69A4
:1025C000012B16D0012B02D3022B22D03EE07B69D7
:1025D00030331B68002B03D12048B421FFF7F2F9F8
:1025E0007B6930331B68184679694C2205F090FAF4
:1025F0002CE07B6930331B68002B03D11748CE21B8
:10260000FFF7E0F97B6930331B681A46124B1A60FA
:102610001CE07B6930331B68002B04D07B693433AA
:102620001B68002B03D10D48E521FFF7CBF97B692F
:1026300030331B68184679694C2205F069FA7B69CA
:1026400034331B681A46044B1A6000BF0023184637
:102650001837BD4680BD00BF80270020D460030826
:1026600080B500AF1A48FDF7C3FF19480121FEF7F6
:1026700027F91848FDF7BCFF16480021FEF720F99E
:102680001548FDF7B5FF14480021FEF719F9134866
:10269000FDF7AEFF11480021FEF712F91048FDF7D3
:1026A000A7FF0F480021FEF70BF90E48FDF7A0FF2A
:1026B0000C480021FEF704F90B4B002B01D02BF046
:1026C000B3FF0A4B002B01D0AFF3008080BD00BFE9
:1026D000440905004B0806004F0806003B080600A9
:1026E0002D0806003C08060029E60208000000004C
:1026F00080B586B000AF854B01221A70844B002252
:102700001A60834B00225A60824B00221A60814B70
:1027100000225A60804B00221A607F4B00225A60D0
:102720007E4B00221A607D4B00225A607C4B0022B7
:102730001A607B4B00225A607A4B00221A60794B58
:1027400000225A60784B00221A60774B00225A60B0
:10275000764B00221A60754B00225A60744B00229F
:102760001A8000237B610EE0724A7B69002142F8E7
:102770003310704A7B69DB0013444FF6FF729A8076
:102780007B6901337B617B690F2BEDDD684B1B8817
:102790009BB29BB203F00F033B61664A3B696649FB
:1027A00042F83310624B1B8899B2624A3B69DB00E6
:1027B00013440A469A8060480021F02205F0F2F89E
:1027C0005B4B1B889AB25C4B9A815B4B03229A76D7
:1027D000594B5A4A1A61584B584A5A61564B06226D
:1027E0009A83574857491F2205F066F9524B002239
:1027F00083F8EB20544B524A1A60534B00225A6024
:102800004D4B514AC3F8EC20414BFB604A48F968F4
:1028100004F0DAFE484806F025F83C4B02221A7014
:1028200007F108023B1D1046194605F0F7FEBA688D
:102830007B681046194605F0C5FB344B03221A701D
:10284000424B002B01D000F013FE414B002B01D076
:1028500003F0B6F93F4B002B01D001F0B9FC3E4B21
:10286000002B01D0AFF300803C4B002B01D002F0D5
:10287000CFF93B4B002B01D023F0AAFB394B002BA7
:1028800001D021F09FFF14F033FE05F0CBFF1F4B6A
:1028900004221A70284B9B8BDBB22748194600F0A4
:1028A000DBFC0346002B04DA2F4840F2DE21FFF761
:1028B00089F8214800F038FD0346002B04DA2A4845
:1028C00040F2F121FFF77EF81B4800F00FFD0346B0
:1028D000002B04DA244840F2FA21FFF773F8164B74
:1028E0009B6801221A70022004F0A4F9074B05220C
:1028F0001A7000F067F80346002B04DA1A4840F219
:102900002131FFF75FF805F0ADFEFCE79C270020C2
:1029100094270020382800208C270020B027002092
:10292000A027002084270020A8270020442800207A
:1029300040280020B8270020041E0020F1260008AF
:10294000D01E002030610308F41E002071340008FE
:10295000C15B0008D141000800000000114C0008D4
:10296000D15F0208C54702083C61030880B500AF8B
:1029700000F06AFB00F0EEFB80BD00BF80B584B0C4
:1029800002AF00230093094864214FF40062084B12
:1029900000F020F978607B68002B04DC054840F2E9
:1029A0000D11FFF70FF80837BD4680BD4C610308D5
:1029B000858C00085461030880B500AFFFF7DEFF87
:1029C00080BD00BF80B500AFFFF7D0FFFFF7F4FF79
:1029D0000023184680BD00BF80B588B000AFF86006
:1029E000B9607A604FF0FF33FB61FB68612B25D83B
:1029F000FB68BB61EFF3108372B6BB82BB8AFB82BC
:102A0000BB68002B06D1F868FFF766FA0E4BBB6077
:102A100000237B600D49BB69BA6841F833200B4A3B
:102A2000BB69DB0013447A685A60FB8A7B827B8A2D
:102A300013F0010F00D162B60023FB61FB69184659
:102A40002037BD4680BD00BF992A00086C280020B1
:102A500080B584B000AF786039607B68612B04D9A1
:102A60000B4BFB600023BB600AE00A4A7B6852F80C
:102A70003330FB60074A7B68DB0013445B68BB6054
:102A8000FB6878683968BA6898471037BD4680BDDA
:102A9000992A00086C28002080B586B000AFF86045
:102AA000B9607A60EFF3108372B6FB8203200449A9
:102AB000044AFB6805F06CF803484121FEF782FFE9
:102AC00068610308946103087C61030880B58AB0DB
:102AD00002AFF8607A603B600B46FB72F02005F0B5
:102AE000B1FAB861BB69002B02D10C23FB6162E033
:102AF000FB7AB869194600F0AFFB78617B69002B5F
:102B000003DA7B695B42FB6150E0B86900F086FC48
:102B100078617B69002B03DA7B695B42FB6145E0EE
:102B20003A68FB7AB86911461A4605F023FE7861C7
:102B30007B69002B03DA7B695B42FB6136E0FB7A41
:102B40000093B8697968214ABB6A00F0CDF97861D1
:102B50007B69002B03DA7B695B42FB6126E0B86985
:102B6000F968FA6A00F0E8F9B86900F0BFFB78612B
:102B70007B69002B03DA7B695B42FB6116E0BB6972
:102B80009B897B82B86900F0EBF978617B69002B47
:102B900009DA00F043FB03461B68FB61B8690C4986
:102BA00004F036FD02E0B7F912300BE0FB7AB869A9
:102BB000194600F0DFFC00F031FB0246FB691360B0
:102BC0004FF0FF3318462037BD4680BD952F0008D3
:102BD000A827002080B586B002AFF860B9607A609F
:102BE0003B603B680093BB690193F8680021BA68B9
:102BF0007B68FFF76BFF034618461037BD4680BD64
:102C000080B586B002AFF860B9607A603B603B681F
:102C10000093BB690193F8680221BA687B68FFF7EB
:102C200055FF034618461037BD4680BD80B586B0B7
:102C300000AF786000F0D2FC00233B6133E01F4B13
:102C40001B889BB29BB201339BB29BB29BB21B4AC7
:102C500019461180FB82B7F91630002B04DC174BA4
:102C600001221A800123FB82FB8A03F00F03FB6021
:102C7000134AFB6852F83330002B11D11049FB681E
:102C80007A6841F833200E4AFB68DB001344FA8A65
:102C90009A807B68FA8A9A8100F0CAFC002309E0D6
:102CA0003B6901333B613B690F2BC8DD00F0C0FC81
:102CB0004FF0FF3318461837BD4680BD402800202E
:102CC000B827002080B586B000AFF860B9607A60A0
:102CD0003B60F868FFF7AAFF78617B69002B3BD166
:102CE000BB68DAB2FB681A76BB68DAB2FB685A7660
:102CF000FB687A681A613A68FB685A6197F8203075
:102D000003F0030387F82030FB689B8B23F0030359
:102D10009AB2FB689A83FB689A8B97F820309BB233
:102D200013439AB2FB689A83FB683833032000216F
:102D30001A4600F0D3FCFB6800229A76F86805F08A
:102D400091FD00F04BFCF868064904F03DFCFB687F
:102D500004229A7600F06CFC7B6918461837BD4651
:102D600080BD00BFA827002080B582B000AF78608A
:102D700039603B68002B01D1074B3B607B68CC334B
:102D8000184639681F2204F097FE7B68002283F8FA
:102D9000EB200837BD4680BDA861030880B58AB026
:102DA00000AF786039607B68CC337B61786904F070
:102DB0006BFE034601333B620023FB613B68002B43
:102DC00026D01EE0FB699B003A6813441B68184636
:102DD00004F05AFE034601333A6A13443B627B68AF
:102DE0009A6A3B6A9A4202D86FF05A0375E0FB690F
:102DF0000133FB61FB69B3F5807F02DD6FF00603F1
:102E00006BE0FB699B003A6813441B68002BD9D127
:102E1000FB6902339B003B6179683A693B6A134462
:102E20000846194605F06AFEF860FB68002B04D1DD
:102E30002C4840F23621FEF7C5FDFB68002B02D17D
:102E40006FF00B0349E0FA683B6913447B62FB684F
:102E50007A6A1A60786904F017FE03460133BB6092
:102E6000786A796904F0BAFDBB687A6A13447B62B8
:102E70000023BB6121E0BB6901339B00FA68134466
:102E80007A6A1A60BB699B003A6813441B6818464B
:102E900004F0FAFD03460133BB60BB699B003A684E
:102EA00013441B68786A194604F098FDBB687A6A77
:102EB00013447B62BB690133BB61BA69FB699A4207
:102EC000D9DBFB6901339B00FA68134400221A60C6
:102ED0007B68FA68C3F8EC20002318462837BD4603
:102EE00080BD00BFB461030880B586B002AFF86052
:102EF000B9607A603B603B7E0093F868B9687A6895
:102F00003B68FFF7DFFE034618461037BD4680BD1D
:102F100080B586B002AFF860B9607A603B6001238B
:102F20000093F868B9687A683B68FFF7CBFE034600
:102F300018461037BD4680BD80B584B000AFF8603C
:102F4000B9607A60F868B968FFF70EFFF8687968C9
:102F5000FFF724FF034618461037BD4680BD00BF6B
:102F600080B584B000AF7860EFF3108372B6BB8198
:102F7000BB89FB81786805F0F3FDFB897B817B8948
:102F800013F0010F00D162B6002318461037BD467A
:102F900080BD00BF80B584B000AF174B1B68BB601D
:102FA000BB689B8B03F00303012B03D1134857210C
:102FB000FEF708FD0123FB6009E0FB680133FB60BD
:102FC000FB68B3F5807F02DD012000F019F8BB68D3
:102FD000D3F8EC20FB689B0013441B68002BECD15A
:102FE000BB685B69BA68D2F8EC20F868114698476C
:102FF0007860786800F004F894270020C86103081E
:1030000080B584B000AF7860064B1B68FB607B68BE
:10301000DBB27B60F8687968002200F037FF7868DF
:1030200005F0ECFB9427002080B582B000AF7860FB
:103030003960044B1B6803481946002200F09EFFCC
:10304000F7E700BF4C28002080B584B002AF1D4BCD
:103050000A221A601B4B00225A601A4B00229A6007
:10306000002300931848E0214FF40062174BFFF74C
:10307000C7FD0346FB80B7F90630002B03DC14487C
:10308000A221FEF79FFCB7F90630002B0EDA00F004
:10309000C5F803461B683B603B68002B03DC0C480B
:1030A000A621FEF78FFC3B685B4207E0054AFB88E0
:1030B0009381044B01229A73B7F9063018460837FA
:1030C000BD4680BD4C280020DC6103082930000883
:1030D000E461030880B586B000AF7860396000F025
:1030E00001FF0346FB8100237B6100233B6110E06D
:1030F000164A3B6902339B0013449B88B7F90E20A4
:103100001BB29A4202D13B697B6105E03B69013306
:103110003B613B69002BEBDD3B69002B03DD0C4879
:103120007121FEF74FFC7B69002B05DD074800216C
:103130007A6900F023FF08E000F0EEF9034B1B680A
:1031400002481946002200F019FFECE75C28002035
:10315000FC61030880B586B002AF2C480021102224
:1031600004F020FC294B05221A60284B00225A60EB
:10317000264B00229A6000F031FA0023FB6038E011
:1031800000230093224832214FF40062214BFFF7C5
:1031900037FD03467B81B7F90A30002B03DC1E485C
:1031A000D121FEF70FFCB7F90A30002B10DA00F03E
:1031B00035F803461B687B607B68002B03DC1648F0
:1031C000D521FEF7FFFB00F033FA7B685B4218E085
:1031D0000E4AFB6802339B0013447A899A800B4A9B
:1031E000FB6802339B00134401229A71FB68013390
:1031F000FB60FB68002BC3DD00F01AFA034B9B89D0
:103200001BB218461037BD4680BD00BF5C280020A9
:1032100014620308D5300008FC61030880B582B051
:1032200000AF05F041FB0346002B0CD1084B1B6897
:103230007B607B68002B06D07B689B7E032B02D1D2
:103240007B686C3300E0034B18460837BD4680BDF1
:1032500094270020FC1E002080B584B000AF786069
:103260000B46FB707B68002B03D07B689B68002BB0
:1032700003D01D48B621FEF7A5FB4FF4F27004F011
:10328000E1FEF860FB68002B02D16FF00B0326E033
:103290007B68FA689A60F86801F042F9B860BB6828
:1032A000002B07DAF86804F0AFFE7B6800229A6012
:1032B000BB6814E0FB680C3318460021012204F0BF
:1032C000D1F9FB68043318460021002204F0CAF942
:1032D000FB6804331846002104F0FEF90023184669
:1032E0001037BD4680BD00BF1C62030880B584B0A6
:1032F00000AF78607B68002B03D07B689B68002B55
:1033000004D1084840F22511FEF75CFB7B689B68FE
:10331000FB60FB6801225A70002318461037BD4637
:1033200080BD00BF1C62030880B584B000AF786028
:103330007B689B68FB60FB68002B03D11448562117
:10334000FEF740FBFB683433184614F027F91148A8
:10335000032114F03FFEB860BB68002B0CD10020A5
:10336000012114F02FFC0020022114F02BFC7868BE
:1033700001F07CF9034607E0BB68002B02DDB8686A
:1033800014F0FEFB6FF0160318461037BD4680BDE3
:10339000346203085462030880B586B000AF7860D9
:1033A0001C4B1B683B617B68002B07D07B689B68CC
:1033B000002B03D03B699B68002B03D11648612189
:1033C000FEF700FB3B699B683833FB607B689B68BA
:1033D0003833BB6000237B6115E07B691B01FA6811
:1033E00013449B68002B0BD07B691B01FA68D11832
:1033F0007B691B01BA6813440846194614F00AF9A0
:103400007B6901337B617B69072BE6DD1837BD469D
:1034100080BD00BF942700206462030880B584B09B
:1034200000AF78607B689B68FB60FB68002B03D172
:103430000E48D621FEF7C6FA7B689B8B03F0030388
:10344000012B03D10948D921FEF7BCFAFB683433BC
:10345000184614F0A3F87868FFF79EFF786801F02B
:1034600005F9034618461037BD4680BD646203085F
:1034700080B483B000AF00237B600DE00A4A7B6814
:103480000A4942F83310084A7B68DB0013440022E3
:103490005A607B6801337B607B68612BEEDD0C3703
:1034A000BD465DF8047B70476C280020992A00080F
:1034B00080B584B000AF16E0EFF3108372B6FB80E6
:1034C000FB88FB810B4804F035F8B860FB89BB80B2
:1034D000BB8813F0010F00D162B6BB68002B02D08D
:1034E000B86804F091FD034B1B68002BE4D1103742
:1034F000BD4680BD4428002080B400AF054B1B684A
:10350000002B14BF01230023DBB21846BD465DF833
:10351000047B70474428002080B500AFFFF7C8FF48
:1035200080BD00BF80B500AFFFF7E6FF0346002B6C
:1035300014BF01230023DBB2184680BD80B485B0E0
:1035400000AF0346FB80FB8803F00F03FB60084AD3
:10355000FB68002142F83310054AFB68DB00134486
:103560004FF6FF729A801437BD465DF8047B7047B2
:10357000B827002080B584B000AF78600B46FB70A0
:103580000023FB607B68002B21D0134B002B05D060
:103590007B689B891BB21846AFF300807B689B89D0
:1035A000002B05D07B689B891BB21846FFF7C6FF2E
:1035B0007B68DB6A002B04D0FB787868194605F03D
:1035C000BDF9786801F02AF8786801F057F9FB68CE
:1035D00018461037BD4680BD0000000080B582B09F
:1035E00000AF114B1B687B607B68002B16D005F089
:1035F0005BF90346002B11D17B68DB8B1BB27E2B62
:1036000003DD0A489E21FEF7DDF97B68DB8B9BB268
:103610009BB201339BB29AB27B68DA8300231846CF
:103620000837BD4680BD00BF942700208462030890
:1036300080B584B000AF274B1B68FB60254B1B682F
:10364000FB60FB68002B3FD005F02EF90346002BF2
:103650003AD1EFF3108372B63B813B897B81FB68E3
:10366000DB8B1BB2002B08DDFB68DB8B9BB29BB2B4
:10367000013B9BB29AB2FB68DA83FB68DB8B1BB21F
:10368000002B1ADCFB680022DA83134B1B68002B2B
:1036900001D005F019F9FB689B8B03F06003202B28
:1036A0000BD1FB681B6A002B07D10A4B1A68FB6819
:1036B0009A4202D0FB6814221A627B89FB80FB8845
:1036C00013F0010F00D162B6002318461037BD4633
:1036D00080BD00BF942700203828002080B58AB024
:1036E00000AFF860B9607A60244B1B683B6200232E
:1036F0007B62FFF773FF3B6A9B6BFB617B68002B70
:1037000002D07B68FA691A60BB68002B2FD0EFF3F8
:10371000108372B63B833B8B7B83FB68022B0BD001
:10372000032B12D0012B15D13B6A9A6BBB681B6827
:103730001A433B6A9A6311E03B6A9A6BBB681B6849
:10374000DB431A403B6A9A6308E0BB681A683B6A2D
:103750009A6303E06FF015037B6200BF7B8BFB82F3
:10376000FB8A13F0010F00D162B600F027F8FFF7D3
:103770005FFF7B6A18462837BD4680BD942700202E
:1037800080B586B000AFF860B9607A60F868B96853
:103790007A68FFF7A3FF78617B69002B08DAFFF7EF
:1037A0003DFD02467B695B4213604FF0FF337B6156
:1037B0007B6918461837BD4680BD00BF90B585B0FF
:1037C00000AF1B4B1B68FB60FFF708FFFB689B6BA0
:1037D000DC43F86801F0B4FA034623403B601EE086
:1037E0003B46184600F0AEF8B860BB68B3F1FF3F47
:1037F00015D03B461846B96803F0CAFFF868B968A7
:1038000000F018F878607B68002B08D07B680433E0
:10381000F868194600F0C8F9786800F055F83B6878
:10382000002BDDD1FFF704FF1437BD4690BD00BF6C
:103830009427002080B588B000AF786039607B683D
:103840009B687B617B69002B03D11E484C21FEF7EE
:10385000B9F8EFF3108372B63B823B8A7B82002378
:10386000BB617B695B6AFB6104E0FB69BB61FB696F
:103870001B68FB61FB69002B05D0FB691B791A46AD
:103880003B689A42F1D1FB69002B0ED0BB69002B3B
:1038900006D07B692433B869194603F06BFE04E057
:1038A0007B692433184603F045FE7B8AFB81FB8944
:1038B00013F0010F00D162B6FB6918462037BD46F0
:1038C00080BD00BF9862030880B586B000AF786005
:1038D0007B681B7B002B11D1EFF3108372B6BB8288
:1038E000BB8AFB827868154903F096FDFB8A7B82D0
:1038F0007B8A13F0010F00D162B61CE07B681B7B52
:10390000022B11D1EFF3108372B63B823B8AFB820C
:1039100078680B4903F080FDFB8AFB81FB8913F07B
:10392000010F00D162B606E07B681B7B012B02D140
:10393000786800F0A3FF1837BD4680BDA82B002093
:10394000A02B002080B584B000AF78600023FB601E
:103950000BE07868F96803F049FF0346002B01D0BB
:10396000FB6807E0FB680133FB60FB681F2BF0DDA1
:103970004FF0FF3318461037BD4680BD80B588B084
:1039800000AF786039600023FB61FFF727FE7B689A
:10399000002B03D07B689B68002B03D12348512167
:1039A000FEF710F87B689A683B681B78104619464A
:1039B00001F056FBB861BB69002B2FD0BB695B6877
:1039C000002B2BD001F070FB78617B69002B03D1B9
:1039D0006FF00B03FB6121E0BB695A687B695A6099
:1039E000BB699A687B699A607B690C3318463968B1
:1039F000082204F08DF8EFF3108372B63B823B8A05
:103A00007B827B6840337869194603F005FD7B8A29
:103A1000FB81FB8913F0010F00D162B6FFF708FEAE
:103A2000FB6918462037BD4680BD00BFBC62030855
:103A300080B584B000AF04F037FF0346002B0BD0F5
:103A4000184803F077FDF860FB68002B25D1164875
:103A500003F070FDF86020E0EFF3108372B63B8155
:103A60003B897B810F4803F065FDF8607B89FB8013
:103A7000FB8813F0010F00D162B6FB68002B0CD15C
:103A8000FB68002B03D1102004F0CCFAF860FB682F
:103A9000002B02D0FB6801221A73FB68184610370E
:103AA000BD4680BDA82B0020A02B002080B586B08D
:103AB00000AF7860396000237B617B68002B03D105
:103AC0001248CA21FDF77EFFEFF3108372B63B82E6
:103AD0003B8A7B827B685B6A7B6102E07B691B6857
:103AE0007B617B69002B05D07B691B791A463B689B
:103AF0009A42F3D17B8AFB81FB8913F0010F00D13D
:103B000062B67B6918461837BD4680BDBC620308A3
:103B100080B586B000AF786039607B68002B03D039
:103B20007B689B68002B03D11E48EC21FDF74AFF00
:103B30007B689B683B613B681B7838691946FFF7D7
:103B4000B5FF78617B69002B07D07B690433184689
:103B50003968082203F0DCFF1FE0FFF769FF786196
:103B60007B69002B19D07B69043318463968082219
:103B700003F0CEFFEFF3108372B6BB81BB89FB81EC
:103B80003B6924337869194603F046FCFB897B8145
:103B90007B8913F0010F00D162B67B691846183794
:103BA000BD4680BDBC62030880B586B000AF7860BA
:103BB000396000237B617B68002B02D03B68002BBF
:103BC00004D148484FF49A71FDF7FCFE7B6803F17D
:103BD00038023B681B781046194603F007FE03467F
:103BE000002B3ED0EFF3108372B63B823B8A7B8280
:103BF0007B689B7E062B21D17B6803F13C023B68EE
:103C00001B781046194603F0F1FD0346002B15D032
:103C10007B68503318463968082203F079FF7B68C7
:103C20000022DA63786804F09BFF7B8AFB81FB89C2
:103C300013F0010F00D162B600BF4DE07B8ABB815B
:103C4000BB8913F0010F00D162B678683968FFF7BD
:103C50005FFF0346002B3FD122484FF4AA71FDF7C6
:103C6000B1FE78683968FFF789FE7861EFF3108359
:103C700072B67B817B897B8278681B4904F076FE73
:103C80007B689B7E062B0CD17B68503318463968C5
:103C9000082203F03DFF7B680022DA63786804F0B5
:103CA0005FFF7B8A3B813B8913F0010F00D162B635
:103CB0007B689B7E052B03D17868042100F012FFFE
:103CC0007B689B7E072B03D07B689B7E082B03D1F0
:103CD0007868042100F048FD7B6918461837BD4616
:103CE00080BD00BFBC620308253D000880B584B0DC
:103CF00000AF03463960FB80B7F90630184600F084
:103D0000EBFDF860FB68002B02D16FF0020304E0CA
:103D1000F8683968FFF748FF034618461037BD4674
:103D200080BD00BF80B58AB000AF7860FFF756FC59
:103D30007B68DB6E3B627B681B6C7B6252E07B6A5C
:103D40001B68FB61EFF3108372B67B827B8A7B83F7
:103D50007B684033786A194603F0B4FB7B684833CC
:103D6000786A194603F058FB7B8B3B823B8A13F041
:103D7000010F00D162B67B689B6B7B617B6A9A689E
:103D80007B691A437B6A1B7B194601238B401A43CC
:103D90007B689A637B6A5B687A6A127B11467A6AEF
:103DA0000C3208461146002298477B687A699A636C
:103DB000FFF704FDEFF3108372B6FB81FB897B8371
:103DC0007B684833786A194603F07CFB7B8BBB81A8
:103DD000BB8913F0010F00D162B6786A01F0A2F935
:103DE000FB697B627B6A002BA9D17B683A6ADA6641
:103DF000FFF71EFC2837BD4680BD00BF80B584B0EC
:103E000000AF786039607B689B68FB60FB68002BC3
:103E100021D07B689B8B03F00303012B08D0FB6848
:103E20009B68002B04D0FB689B683A6812021A60FA
:103E3000FB685B78012B0ED1FB6800229A6004E0DE
:103E4000FB680433184600F0A3FDFB689B889BB217
:103E50001BB2002BF4DB1037BD4680BD80B584B0AB
:103E600000AF78607B689B68FB60FB68002B09D023
:103E7000FB685B78012B05D17B689B68B8331846DB
:103E800003F0D4FC1037BD4680BD00BF80B584B0C0
:103E900000AFF860B9601346FB71FB689B8B03F4BD
:103EA0008073002B00D019E0F86800F031F8F86852
:103EB000B968FFF7A3FFFB79002B02D1F868FFF781
:103EC000CDFFF86800F0AAFBF86801F069F9FB681B
:103ED0009B8B43F480739AB2FB689A831037BD467C
:103EE00080BD00BF80B483B000AF084B1B687B600F
:103EF0007B68002B02D07B689B8900E000231BB20B
:103F000018460C37BD465DF8047B704794270020A7
:103F100080B582B000AF7860786800F009F8786802
:103F200000F0A8FD786800F0DFFB0837BD4680BDD3
:103F300080B584B000AF7860EFF3108372B6BB81B8
:103F4000BB89FB817B685B6A002B0CD07B685B6A5A
:103F5000184601F049FB7B685B6A184601F0A8FB34
:103F60007B6800225A62FB897B817B8913F0010FF9
:103F700000D162B61037BD4680BD00BF80B590B09D
:103F800000AFF860B9607A60BB683B63EFF3108301
:103F900072B67B837B8B7B875E4B1B68FB62FB6807
:103FA0005B68FB6352E05B4B1B68BB62FB6B1B698E
:103FB000BA6AD31A7B63FB6B5A697B6B9A4229D826
:103FC000FB680433F86B194603F022FBFB6B9B681C
:103FD0007B627B6A002B19D0FB6BDB683B62FB6B5F
:103FE00000229A607B8F3B833B8B13F0010F00D143
:103FF00062B67B6A386A9847EFF3108372B6FB8229
:10400000FB8A7B87FB685B68FB631FE0FB6B1B68BD
:10401000FB631BE0BA6AFB6AD31A7A6B13447B63B7
:10402000FB6B5A697B6B9A4202D2FB6B5B697B63C9
:10403000FB6B5A697B6BD31AFB61FA693B6B9A4243
:1040400001D2FB693B63FB6B1B68FB63FB6B002BC3
:10405000A9D1BB68002B27D107F11003184603F044
:10406000B7FB07F110031846112103F073FBFA6840
:104070007B6802339B00134400229A7107F11003FE
:1040800018460021002200F0BDFE0346002B03DA93
:104090002148EC21FDF796FCFA687B6802339B000F
:1040A000134401229A712BE01A4B1A68FB6AD31A47
:1040B0007B637A6BBB689A4222D23B6B002B1FD08A
:1040C000BA687B6BD31AFB613A6BFB69934228BFDA
:1040D00013463B63FA687B6802339B00134400225B
:1040E0009A713B6B42F2107202FB03F3184601F027
:1040F000A1F8FA687B6802339B00134401229A718D
:104100007B8FBB82BB8A13F0010F00D162B64037B0
:10411000BD4680BD7C2B0020D462030880B58AB0E8
:1041200000AF786000237B6207F108031846FEF7B2
:10413000C3F838623B6A002B0ADB07F10803184614
:1041400003F088FD02467B681A607B687A6A5A60D1
:104150003B6A18462837BD4680BD00BF80B582B097
:1041600000AF1848FFF7DAFF174B00221A60164B12
:104170001B68002B23D0144B1B681A463B46104685
:10418000194600F023F90F4B1A683B68D31A0D4A01
:1041900013600C4B5A687B68D31A0A4A53600AE0D2
:1041A000084B5A68094B1344064A5360054B1B6879
:1041B000013B044A1360034B5B68002BF0DB0837BC
:1041C000BD4680BD802B00207C2B002000CA9A3B7E
:1041D00080B500AFFDF7C8FFFFF7C0FF80BD00BF8F
:1041E00080B582B000AFEFF3108372B6BB80BB889E
:1041F000FB80FFF7B3FFFB887B807B8813F0010F08
:1042000000D162B60837BD4680BD00BF80B58EB014
:1042100000AF78607B68002B02D107F108037B6058
:10422000EFF3108372B67B857B8D7B8607F12003CD
:104230001846FFF773FFF862FB6A002B06DA7B680B
:1042400000221A607B6800225A609DE007F1180383
:10425000184600F0E3F8BA69504B1B6813443B6101
:10426000FA694E4B5B6813447B617B694C4A93420D
:1042700012DD7B694B4A82FB03121217DB17D31A3C
:104280007B633A697B6B13443B617A697B6B46497C
:1042900001FB03F313447B613A693B6A9A4207D8F6
:1042A0003A693B6A9A420AD17A697B6A9A4206DB8A
:1042B0007B6800221A607B6800225A6064E03B6AD7
:1042C000364A13607B6A354A5360344B5A68FB693F
:1042D0009A420ADA314B5A68344B13442F4A5360DE
:1042E0002E4B1B68013B2D4A13602C4B5A68FB690F
:1042F000D31A2A4A5360294B1A68BB69D31A274A32
:104300001360BA69254B1B681A443B69D21A7B6853
:104310001A60FA69214B5B681A447B69D21A7B6880
:104320005A607B685B68002B0BDA7B685B68DB4359
:104330001C4A82FB03121217DB17D31ADB437B6381
:1043400010E07B685B68164A934209DD7B685B6816
:10435000144A82FB03121217DB17D31A7B6301E0A6
:1043600000237B637B6B002B0ED07B681A687B6B12
:104370001A447B681A607B685A687B6B0A4901FBA8
:1043800003F31A447B685A607B8E3B853B8D13F0A8
:10439000010F00D162B63837BD4680BD802B0020AA
:1043A000FFC99A3BA12FB844003665C400CA9A3BA6
:1043B00080B400AF044B1B680133034A1360BD4651
:1043C0005DF8047B704700BF7C2B002080B485B073
:1043D00000AF786039607B680E4A82FB031252118D
:1043E000DB17D31A1A463B681A607A683B681B6869
:1043F000642101FB03F3D31AFB60FB68064A02FB4E
:1044000003F23B685A60002318461437BD465DF836
:10441000047B70471F85EB51809698002DE9F04F83
:104420008FB000AFF8613D4B1A6813469B001344F0
:104430005B001A464FF00003C7E90C23D7E90C23B1
:10444000104619464FF47A724FF000031FF0D8F966
:1044500002460B46C7E90A23D7E90A0102460B4682
:104460009E007E617E6946EA92767E6193003B61A2
:10447000D7E904234FEA431949EAD2694FEA4218BF
:10448000B8EB020869EB030918EB000849EB0109D6
:104490004FEAC903FB60FB6843EA5873FB604FEACD
:1044A000C803BB60D7E9028940464946D7E90C23D7
:1044B000101A63EB010102460B465E027E607E68C5
:1044C00046EAD2567E6053023B60D7E900235D0185
:1044D00045EAD2655401A41A65EB0305241845EB9F
:1044E00001054FEA851B4BEA946B4FEA841ABAEB3D
:1044F000040A6BEB050B1AEB00024BEB0103C7E957
:104500000823BA6AFB691A603A6AFB695A60002399
:1045100018463C37BD46BDE8F08F00BF7C2B00201D
:1045200080B586B000AF7860254B1B68BB60002368
:104530007B610023FB607B68002B06D0BB68002BEF
:1045400003D0BB689B68002B03D11E485521FDF7A3
:1045500039FAFFF743F8BB689B68002B28D0BB688B
:104560009B681B6B002B23D0BB689B68DB6A3B619D
:1045700000237B613B69002B14D0386903F052FDA6
:1045800078617B69002B05D100233B616FF00B0341
:10459000FB6007E0BB689B681B6B786919463A694A
:1045A00003F0B6FA7B683A69DA627B687A691A6363
:1045B000FFF73EF8FB6818461837BD4680BD00BFC0
:1045C00094270020EC62030880B582B000AF7860C9
:1045D000786800F00DFE786800F022F97B683433CB
:1045E000184612F0F1FF786802F05CFE786801F07E
:1045F000F5F8786800F064F87B689B78002B07D0AA
:104600007B681B7843F00803DAB27B681A7002E01B
:10461000786800F033F90837BD4680BD80B584B0B6
:1046200000AF78607B68002B04D10F4840F29111F5
:10463000FDF7C8F97B689B68FB60FB68002B10D016
:10464000FB685B78012B06D9FB685B78013BDAB22B
:10465000FB685A7002E0F868FFF7B6FF7B6800223B
:104660009A601037BD4680BD0063030880B582B0F4
:1046700000AF78607B68002B03D07B689B68002BC1
:1046800003D10E484921FDF79DF97B689B681846C8
:1046900002F0C8FD002001217A6814F097FC012087
:1046A00006217A6814F092FC022006217A6814F040
:1046B0008DFC002318460837BD4680BD14630308EF
:1046C00080B582B000AF786006E07B68D3F8DC315B
:1046D0001846796815F06AF87B68D3F8DC31002B4E
:1046E000F3D10837BD4680BD80B582B000AF786099
:1046F0007B689B7E072B17D17B689B6D002B05D0B9
:104700007B689B6D5B8A1BB2002B03DC154855212F
:10471000FDF758F97B689A6D538A9BB29BB2013BB7
:104720009BB29BB253821AE07B689B7E082B16D10A
:104730007B689B6D002B05D07B689B6D1B8A1BB231
:10474000002B03DC07485F21FDF73CF97B689A6D7D
:10475000138A9BB29BB2013B9BB29BB21382083778
:10476000BD4680BD3063030880B586B000AF786079
:104770003960EFF3108372B6FB81FB89FB827B68A3
:104780009B7E072B03D07B689B7E082B3BD17B68ED
:104790009B6D3B613B69002B03D120486221FDF7F3
:1047A00011F97B6800229A657B689B7E072B12D1EA
:1047B0003B695B8A1BB2002B03DC18486A21FDF7BA
:1047C00001F93B695B8A9BB29BB2013B9BB29AB2F7
:1047D0003B695A8211E03B691B8A1BB2002B03DC48
:1047E0000E486F21FDF7EEF83B691B8A9BB29BB226
:1047F000013B9BB29AB23B691A827B683A68DA66DF
:10480000786804F0ADF9FB8ABB81BB8913F0010F16
:1048100000D162B61837BD4680BD00BF44630308AF
:1048200080B584B000AF78607B68002B03D112485C
:104830004C21FDF7C7F813E07B681B69FB60FB6840
:104840001A687B681A61FB680C33184600F06CF834
:10485000FB680A33184600F067F8F86800F00EF8B5
:104860007B681B69002BE7D17B680C33184600F08E
:104870005BF81037BD4680BD5863030880B584B02F
:1048800000AF786004F010F80346002B04D103F069
:10489000A9FB0346002B14D0EFF3108372B6BB8143
:1048A000BB89FB8178680B4902F0B6FD012000F05E
:1048B00055FFFB897B817B8913F0010F00D162B624
:1048C00004E0786803F0A0FB03F096FB1037BD46C8
:1048D00080BD00BF4428002080B485B000AF0346EF
:1048E000FB800023FB60B7F90630002B12DBFB884E
:1048F00003F00F03BB600B4ABB68DB0013449B88CB
:10490000B7F906201BB29A4204D1064ABB6852F896
:104910003330FB60FB6818461437BD465DF8047BF6
:10492000704700BFB827002080B483B000AF786024
:104930007B68002B0AD07B681B889BB21BB2002BC4
:1049400002DB7B6801221A80002301E06FF015036F
:1049500018460C37BD465DF8047B704780B584B0BF
:1049600000AF78607868FFF7DFFFF860FB68002B26
:1049700008DAFEF753FC0246FB685B4213604FF017
:10498000FF33FB60FB6818461037BD4680BD00BF93
:1049900080B586B000AF786000237B616FF01503AF
:1049A0003B617B68002B42D0EFF3108372B6BB8172
:1049B000BB89FB817B681B889BB21BB247F6FF72E9
:1049C000934203D11C487921FCF7FCFF7B681B88CC
:1049D0009BB29BB29BB201339BB29AB27B681A80A6
:1049E0007B681B889BB21BB2002B17DC134B1B6828
:1049F0007B6102E07B691B687B617B69002B04D0D3
:104A00007B695A6B7B689A42F4D17B69002B05D095
:104A10007B6900225A63786904F0A2F800233B61A5
:104A2000FB897B817B8913F0010F00D162B63B6962
:104A300018461837BD4680BD746303088C270020D4
:104A400080B584B000AF78607868FFF7A1FFF860A8
:104A5000FB68002B08DAFEF7E1FB0246FB685B42CD
:104A600013604FF0FF33FB60FB6818461037BD46FC
:104A700080BD00BF80B586B000AF7860EFF31083D3
:104A800072B6FB81FB89FB827B689B7E052B1CD168
:104A90007B685B6B3B613B69002B05D03B691B88E6
:104AA0009BB21BB2002B03DB0D486321FCF78AFF8E
:104AB0003B691B889BB29BB29BB201339BB29AB2FB
:104AC0003B691A807B6800225A63FB8ABB81BB89E1
:104AD00013F0010F00D162B61837BD4680BD00BF8C
:104AE0008C63030880B586B000AF78603960EFF35F
:104AF000108372B6FB81FB89FB827B689B7E052B52
:104B000022D17B685B6B3B613B69002B05D03B6925
:104B10001B889BB21BB2002B03DB10486221FCF701
:104B200051FF3B691B889BB29BB29BB201339BB286
:104B30009AB23B691A807B6800225A637B683A68A4
:104B4000DA66786804F00CF8FB8ABB81BB8913F045
:104B5000010F00D162B61837BD4680BDA4630308BB
:104B600080B586B000AF78600B467B8013467B70C3
:104B70007A8813465B001344DB00184603F052FAB0
:104B8000F860FB687B6100233B610DE07B697A780C
:104B90001A757B6903F118027A611846796802F088
:104BA0003BFC3B6901333B617A883B699A42EDDC0F
:104BB000FB6818461837BD4680BD00BF80B586B07B
:104BC00000AF78600B467B8013467B707B881B01AF
:104BD000184603F027FAF860FB687B6100233B610D
:104BE0000DE07B697A781A737B6903F110027A61B0
:104BF0001846796802F010FC3B6901333B617A8802
:104C00003B699A42EDDCFB6818461837BD4680BD0B
:104C100080B500AF204B00221A601F4B00225A6063
:104C20001E4B00221A601D4B00225A601C4B0022B2
:104C30001A601B4B00225A601A4B00221A60194B53
:104C400000225A60184B00221A60174B00225A604B
:104C5000124810210022FFF783FF0246134B1A600F
:104C60000F4808210222FFF77BFF0246104B1A6013
:104C700000F024F80B4810210022FFF79FFF0246A6
:104C80000C4B1A60084808210222FFF797FF0246E2
:104C9000094B1A6080BD00BF882B0020902B00209C
:104CA000982B0020A82B0020A02B0020041F002000
:104CB000081F00200C1F0020101F002080B582B0AC
:104CC00000AF4FF4A07003F0ADF902460C4B1A6030
:104CD0000B4B1B687B6000233B600AE07B6803F1A1
:104CE00014027A601846074902F096FB3B680133CC
:104CF0003B603B680F2BF1DD0837BD4680BD00BF30
:104D0000001F0020882B002080B584B000AF7860A1
:104D10000A4B1B68BB604FF0FF33FB607B68002BC6
:104D200007D0B86800F00CF802467B681A600023D0
:104D3000FB60FB6818461037BD4680BD94270020F5
:104D400080B588B000AF78607B689B68BB61BB6949
:104D5000002B03D115486521FCF734FE0023FB60CE
:104D6000EFF3108372B6BB82BB8AFB82BB695B6ABE
:104D7000FB610BE0FB691B791A4607F10C0318462F
:104D8000114602F0E7FCFB691B68FB61FB69002B25
:104D9000F0D1FB8A7B827B8A13F0010F00D162B6CF
:104DA000FB6818462037BD4680BD00BFBC630308C2
:104DB00080B584B000AF786039603B68FB60FB6809
:104DC000002B03D10E486D21FCF7FCFDFB689B7E98
:104DD000062B12D1FB68FF2283F85020FB680222C9
:104DE00083F85120FB68742283F85220FB6800226C
:104DF0005A65FB68184603F0B3FE1037BD4680BD08
:104E0000D463030890B593B002AFF860B9607A60DC
:104E10007F4B1B68BB63FB68002B03D0BB6B5B6ADB
:104E2000002B03D07B48FA21FCF7CCFDFEF7D6FB24
:104E3000EFF3108372B67B847B8CFB86FB681C6867
:104E4000B86BFFF77DFF03462340BB61BB69002BB6
:104E50002AD007F118031846FEF774FD0346B86B15
:104E60001946FEF7E7FC38633B6B002B04D1694819
:104E70004FF48971FCF7A6FDBB68002B06D03B6B95
:104E80000433B8681946082202F042FE3B6B1B79D6
:104E9000FB63386BFEF718FDFB8E3B843B8C13F0F5
:104EA000010F00D162B6A6E0FB681A68BB6BDA633B
:104EB0007B68002B62D07B681B681A464FF00003AA
:104EC000554901FB03F0002101FB02F10144524866
:104ED000A2FB002319440B467968496808464FEA4B
:104EE000E071121843EB010347A1D1E90001121848
:104EF00043EB010310461946484A4FF000031EF0E9
:104F00007FFC02460B46C7E90A23D7E90A23012B97
:104F100008BF002A04D33F4840F24B11FCF752FD72
:104F2000BB6A7B6200F0B2F90246BB6B5A62BB6B94
:104F30005B6A002B04D1374840F25911FCF742FD5F
:104F4000BB6B5B6A002B18D0BB6B7B61BB6B5A6A77
:104F50007B6900931046796A314A012300F048FAD0
:104F6000B86B062103F086FBBB6B5B6A184600F04A
:104F70009FFBBB6B00225A6204E003E0B86B062182
:104F800003F078FBBB6B0022DA63BB6B93F8503005
:104F90001F2B12D8BB6B93F85030F868194602F0FB
:104FA00025FC0346002B04D0BB6B93F85030FB6309
:104FB00010E06FF00303FB630CE0BB6B93F8503021
:104FC000FF2B04D013484FF4DA71FCF7FBFC6FF0B1
:104FD0000A03FB63BB68002B06D0BB6B5033B86879
:104FE0001946082202F094FDFB8EFB83FB8B13F025
:104FF000010F00D162B6FEF71BFBFB6B184644376E
:10500000BD4690BDAFF300807F9698000000000081
:1050100094270020D463030800CA9A3B8096980026
:10502000B14D000880B586B000AFF860B9607A6015
:10503000F868B9687A68FFF7E5FE78617B69002B4C
:1050400008DAFEF7EBF802467B695B4213604FF02B
:10505000FF337B617B6918461837BD4680BD00BFB2
:1050600080B584B000AF786039600023FB607B6856
:10507000002B13D0FEF7B2FA7B68DB69FB6002E01D
:10508000FB681B68FB60FB68002B05D0FB681B7C82
:105090001A463B689A42F3D1FEF7CAFAFB681846F3
:1050A0001037BD4680BD00BF80B584B000AF03F0AF
:1050B000FBFB0346002B0BD0184802F03BFAF860CC
:1050C000FB68002B25D1164802F034FAF86020E086
:1050D000EFF3108372B63B813B897B810F4802F06E
:1050E00029FAF8607B89FB80FB8813F0010F00D15F
:1050F00062B6FB68002B0CD1FB68002B03D1182093
:1051000002F090FFF860FB68002B02D0FB680122E0
:105110001A75FB6818461037BD4680BD902B0020DD
:10512000982B002080B586B000AF78607B681B7D2F
:10513000002B11D1EFF3108372B6BB82BB8AFB82C6
:105140007868154902F068F9FB8A7B827B8A13F044
:10515000010F00D162B61CE07B681B7D022B11D1D0
:10516000EFF3108372B63B823B8AFB8278680B496F
:1051700002F052F9FB8AFB81FB8913F0010F00D189
:1051800062B606E07B681B7D012B02D17868FFF7D1
:1051900075FB1837BD4680BD902B0020982B002052
:1051A00080B584B000AF786002E0F868FFF7BAFF1E
:1051B0007B684033184602F0BDF9F860FB68002BAD
:1051C000F3D102E0F868FFF7ADFF7B68483318467B
:1051D00002F0B0F9F860FB68002BF3D17B684FF068
:1051E000FF329A637B680022DA631037BD4680BDC8
:1051F00080B584B000AF786002E0F86800F0B8FBDA
:105200007B681C33184602F095F9F860FB68002BA8
:10521000F3D102E0B868FEF757FB7B6824331846E9
:1052200002F088F9B860BB68002BF3D11037BD4697
:1052300080BD00BF80B586B000AF786000237B6181
:105240007B68002B19D07B680E4AA2FB03239B0CC2
:105250003B613B69BB603B690B4A02FB03F37A6825
:10526000D31A4FF47A7202FB03F3FB6007F10803D1
:105270001846002100F0D6FB78617B691846183784
:10528000BD4680BD83DE1B4340420F0080B584B025
:1052900000AFEFF3108372B63B813B897B81274BD4
:1052A0001B88042B04D803F0FFFA0346002B2BD0F5
:1052B000234802F03FF9F860FB68002B14D01F4B25
:1052C0001B88002B03D11F486721FCF77BFB1B4B7E
:1052D0001B88013B9AB2194B1A80FB6800221A60A6
:1052E000FB6800221A7307E0144B1B88002B03D0C5
:1052F00014487321FCF766FB7B89FB80FB8813F065
:10530000010F00D162B613E07B89BB80BB8813F02C
:10531000010F00D162B6182002F084FEF860FB682D
:10532000002B05D0FB6800221A60FB6802221A736A
:10533000FB6818461037BD4680BD00BFB82B002063
:10534000B02B0020EC63030880B582B000AF264B81
:105350001B689B68002B43DC39E0234802F0EAF825
:105360007860214B1B68002B08D01F4B1B681E4A1E
:10537000126891687A6892680A449A607B681B7B1D
:1053800023F00103DAB27B681A737B685B7B012B25
:105390000CD0022B12D0002B03D014489421FCF720
:1053A00011FB7B685B680020984710E07B685B68B6
:1053B0007A68126901201146984708E07B685B68AB
:1053C0007A6811697A6852690220984700BF064BD3
:1053D0001B68002B04D0044B1B689B68002BBCDDB2
:1053E0000837BD4680BD00BFBC2B00200064030809
:1053F00008B480B58DB000AFF860B9607A60FB6822
:10540000002B05D0FB6B022B02DCBB68002B07DAFC
:10541000FDF704FF0246162313604FF0FF33CAE086
:10542000EFF3108372B6FB82FB8AFB83FB681B7B66
:1054300003F00103002B02D0F86800F0D5F8FB68F8
:105440007A685A60FB6BDAB2FB685A7307F1400363
:105450003B6100233B620BE03B691A1D3A6119680E
:10546000FB683A6A043243F822103B6A01333B621C
:105470003A6AFB6B9A42EFDB08E0FB683A6A043257
:10548000002143F822103B6A01333B623B6A012B47
:10549000F3DDBB68002B02DC0123BB6008E0BB68C6
:1054A0000133BB60BB68002B02DCBB68013BBB6007
:1054B000444B1B68002B04D1F868424901F0ACFF53
:1054C00067E000237B623F4B1B68FB62FB6ABB62A9
:1054D00004E0FB6ABB62FB6A1B68FB62FB6A9B68B9
:1054E0007A6A13447B627B6A002B03DAFB6A1B68CF
:1054F000002BEED109E0FB6ABB62FB6A1B68FB6212
:10550000FB6A9B687A6A13447B627A6ABB689A4238
:1055100003DCFB6A1B68002BEDD1BA687B6A9A42F8
:105520001CDAFB6A9A687B6AD31ABA681344BB60B8
:10553000FB6A9A68BB68D21AFB6A9A60214B1A68A8
:10554000FB6A9A4204D1F8681E4901F085FF20E009
:10555000B86AF9681B4A01F097FF1AE0BA687B6ADB
:10556000D31ABB60FB6A1B68002B04D1F86815498D
:1055700001F052FF0DE0FB6A1B68BB61BB699A68D2
:10558000BB68D21ABB699A60F86AF9680D4A01F0E3
:105590007BFFFB68BA689A60FB681B7B43F00103E2
:1055A000DAB2FB681A73FB8BBB82BB8A13F0010F64
:1055B00000D162B6002318463437BD46BDE88040AE
:1055C00001B07047BC2B002080B500AF054B1B68B5
:1055D000002B06D0034B1B689A68013A9A60FFF7CC
:1055E000B3FE80BDBC2B002080B588B000AF7860D2
:1055F0006FF015037B61EFF3108372B63B823B8A39
:105600007B827B68002B42D07B681B7B03F001030D
:10561000002B3CD00023BB61234B1B68FB6104E0E3
:10562000FB69BB61FB691B68FB61FB69002B03D055
:10563000FA697B689A42F3D1FB69002B03D11B48BE
:105640006E21FCF7BFF9FB691B68002B08D0FB69D2
:105650001B68FA6912689168FA6992680A449A604C
:10566000BB69002B04D0B8690F4901F083FF02E049
:105670000D4801F05FFF7B6800221A607B681B7B8E
:1056800023F00103DAB27B681A7300237B617B8A03
:10569000FB81FB8913F0010F00D162B67B691846CC
:1056A0002037BD4680BD00BFBC2B0020106403081E
:1056B00080B584B000AF78607B68002B03D12448AC
:1056C0005121FCF77FF9EFF3108372B6BB81BB89E0
:1056D000FB817B681B7B03F00103002B02D0786801
:1056E000FFF782FF7B681B7B03F00203002B0AD0CD
:1056F000FB897B817B8913F0010F00D162B678684A
:10570000FFF7BCF81EE07B681B7B03F00403002B53
:1057100018D178680F4901F07FFE0F4B1B880133C9
:105720009AB20D4B1A800C4B1B88102B03D90848DA
:105730008021FCF747F9FB893B813B8913F0010F7E
:1057400000D162B6002318461037BD4680BD00BFA9
:1057500024640308B02B0020B82B002080B584B04F
:1057600000AF78607B68002B03D11A4B9B89FB81CB
:1057700025E07B68012B1FD10023BB600CE0164A9B
:10578000BB6802339B0013449B79DBB2002B00D132
:1057900005E0BB680133BB60BB68002BEFDDBB6875
:1057A000002B01DD002311E00B4ABB6802339B0094
:1057B00013449B88FB8102E06FF0150306E0B7F904
:1057C0000E301846112100F0E1F803461846103754
:1057D000BD4680BD4C2800205C28002080B582B0EA
:1057E00000AF78607B68002B03D10B484E21FCF79B
:1057F000E9F87B681B6B002B04D07B681B6B184699
:10580000FFF73CF87B680022DA627B6800221A63AB
:105810000837BD4680BD00BF3864030880B582B03C
:1058200000AF0C4801F086FE78607B68002B0CD13D
:10583000FFF744FA074801F07DFE78607B68002B93
:1058400003D105485F21FCF7BDF87B68184608378F
:10585000BD4680BD882B00205064030880B588B009
:1058600000AFF860B9607A603F4B1B68BB61BB69F1
:10587000002B03D0BB699B68002B03D13B48A721B9
:10588000FCF7A0F8BB699B687B61FB681F2B07D9FD
:10589000FDF7C4FC0246162313604FF0FF335EE0B1
:1058A0007869F968FFF7DCFBF8617B68002B18D09A
:1058B000FB69002B0CD0FB695A687B681A60FB6996
:1058C0009A687B685A60FB69DA687B689A6008E0CE
:1058D0007B6800221A607B6800225A607B68002285
:1058E0009A60BB68002B01D1002338E0BB681B68BD
:1058F000002B0CD1FB69002B30D07B691C33F8697D
:10590000194601F0DFFDF86900F032F826E0FB6986
:10591000002B17D1FFF782FFF861FB69002B07D13D
:10592000FDF77CFC02460C2313604FF0FF3316E0BA
:10593000FB68DAB2FB691A747B691C33F869194693
:1059400001F06AFDBB681A68FB695A60BB685A6857
:10595000FB699A60BB689A68FB69DA6000231846A5
:105960002037BD4680BD00BF942700205064030847
:1059700080B582B000AF78607868034901F04CFDD3
:105980000837BD4680BD00BF882B002080B586B09B
:1059900000AF03463960FB80B7F90630002B02DC0C
:1059A0006FF057031CE03B681F2B02D96FF0150303
:1059B00016E0FDF713FE3B68DBB23B7300237B73FD
:1059C0000423BB7300233B61B7F9062007F10C03E6
:1059D00010461946FEF78AF97861FDF729FE7B69C2
:1059E00018461837BD4680BD80B584B000AF034669
:1059F0003960FB80B7F9063018463968FFF7C6FFF3
:105A0000F860FB68002B08DAFDF708FC0246FB682B
:105A10005B4213604FF0FF33FB60FB6818461037A2
:105A2000BD4680BD80B58CB000AF786039607B68C2
:105A3000002B08D07B685B68002B04DB7B685B680D
:105A4000314A934202DD6FF0150359E0EFF3108302
:105A500072B67B837B8B7B852C4B1B687B6207F14B
:105A60001003184601F0B4FE07F110031846002198
:105A70007A68FFF7C7F938623B6A002B07DA3B6A9E
:105A800013F10B0F07D03B6A13F1040F03D020482A
:105A90009121FBF797FF3B6A13F10B0F08D17B8D28
:105AA0003B833B8B13F0010F00D162B6002327E04C
:105AB0003B68002B1CD007F10C037868194600F0F6
:105AC0001FF9124B1A687B6AD31AFB61FB681A46EE
:105AD000FB699A4202D80023FB6204E0FB681A4685
