:020000040800F2
:10000000E04A0020AD010008992600089926000862
:1000100099260008992600089926000899260008C4
:1000200099260008992600089926000899260008B4
:1000300099260008992600089926000899260008A4
:100040009926000899260008992600089926000894
:100050009926000899260008992600089926000884
:100060009926000899260008992600089926000874
:100070009926000899260008992600089926000864
:100080009926000899260008992600089926000854
:100090009926000899260008992600089926000844
:1000A0009926000899260008992600089926000834
:1000B0009926000899260008992600089926000824
:1000C0009926000899260008992600089926000814
:1000D0009926000899260008992600089926000804
:1000E00099260008992600089926000899260008F4
:1000F00099260008992600089926000899260008E4
:1001000099260008992600089926000899260008D3
:1001100099260008992600089926000899260008C3
:1001200099260008992600089926000899260008B3
:1001300099260008992600089926000899260008A3
:100140009926000899260008992600089926000893
:100150009926000899260008992600089926000883
:100160009926000899260008992600089926000873
:100170009926000899260008992600089926000863
:10018000992600089926000889080BD020F0030062
:100190004BF6EF62CDF6AD62A1F10101002940F806
:1001A000042BF9D14FF0000E02F0DABA80B582B01C
:1001B00000AF00F0E3F900F00DFC00F027FA412059
:1001C00000F0F0FB1B4B3B6004E03B681A1D3A60FB
:1001D00000221A603B68184A9342F6D3422000F08E
:1001E000E1FB164B7B60164B3B6007E03B681A1D3A
:1001F0003A607A68111D796012681A603B68114A8A
:100200009342F3D3432000F0CDFB01F059F8442092
:1002100000F0C8FB02F092FA462000F0C3FB0D206C
:1002200000F0C0FB0A2000F0BDFB03484FF48061E2
:10023000FFF7AAFF000A0020E4460020008E030812
:10024000000000201009002080B483B000AF174BDD
:100250001B687B607B6843F001037B60134A7B680B
:100260001360134B00221A60104B1B687B607B6885
:1002700023F0847323F480337B600C4A7B68136023
:100280000C4B0D4A1A60094B1B687B607B6823F49A
:1002900080237B60054A7B681360084B00221A604C
:1002A0000C37BD465DF8047B704700BF0038024044
:1002B0000838024004380240103000240C38024054
:1002C00080B483B000AF0C4B1B687B607B686FEA27
:1002D00053236FEA43237B607B6843F480037B6096
:1002E0007B6843F060637B60034A7B6813600C3774
:1002F000BD465DF8047B70473038024080B483B05F
:1003000000AF074B1B687B607B6843F080037B601A
:10031000034A7B6813600C37BD465DF8047B704769
:100320003438024080B400AFBD465DF8047B7047AE
:1003300080B483B000AF0F4B1B687B607B6843F0D9
:1003400002037B607B6843F480437B607B6843F4FB
:1003500000337B607B6843F400137B607B6843F071
:1003600080537B60034A7B6813600C37BD465DF8A1
:10037000047B70474038024080B483B000AF0F4B1D
:100380001B687B607B6843F001037B607B6843F004
:1003900010037B607B6843F480737B607B6843F46D
:1003A00080537B607B6843F480437B60034A7B68B7
:1003B00013600C37BD465DF8047B7047443802403B
:1003C00080B582B000AF474B1B687B607B6843F40D
:1003D00080337B60434A7B681360434B3B6009E09A
:1003E000404B1B6803F40033002B00D005E03B6852
:1003F000013B3B603B68002BF2DC3B68002B6EDD71
:100400003A4B1B687B607B6843F080537B60374AC4
:100410007B681360364B1B687B607B6843F48043CA
:100420007B60334A7B681360324B1B687B607B6860
:1004300023F0F0037B602F4A7B6813602D4B1B6811
:100440007B607B6823F460437B607B6843F40043FC
:100450007B60284A7B681360264B1B687B607B6847
:1004600023F4E0537B607B6843F4A0537B60214A14
:100470007B681360204B7B60204A7B681360194BBC
:100480001B687B607B6843F080737B60154A7B68E8
:10049000136000BF134B1B6803F00073002BF9D0EF
:1004A00040F205737B60164A7B681360114B1B6832
:1004B0007B607B6823F003037B607B6843F002036F
:1004C0007B600C4A7B68136000BF0A4B1B6803F01B
:1004D0000C03082BF9D100F077F800F05BF808372F
:1004E000BD4680BD003802401482190040380240E9
:1004F0000070004008380240195440070438024098
:10050000003C024080B500AFFFF7DAFEFFF7F6FED1
:10051000FFF708FFFFF70CFFFFF72EFF80BD00BFBE
:1005200080B582B000AF002000F0A8FF0F4B1B6821
:100530007B607B680E4A934215D07B680D4A9342DC
:1005400011D0012000F0BAFF0B4800214FF4803297
:1005500001F008F908484FF48031002201F002F957
:10056000002000F0ABFF0837BD4680BD502800409A
:10057000EEFECEFAEFFECEFA7038024080B500AF44
:10058000FFF762FEFFF7CCFFFFF71AFFFFF7BAFF96
:1005900080BD00BF80B500AF012000F08FFF09488B
:1005A0000021012201F0B2F801E000F01FFF054B2D
:1005B0001B889BB203F00203002BF6D0002000F052
:1005C0007DFF80BD7038024080B500AF0648002135
:1005D000012201F0C7F800BF034B1B6803F00203C0
:1005E000002BF9D080BD00BF7438024080B500AF49
:1005F00002480121002201F0B5F880BD74380240A4
:1006000080B400AFBD465DF8047B704780B500AF95
:10061000FFF7F6FF80BD00BF80B58EB000AF7860F9
:100620007B6803F0F0031B093B623B6A082B02D98D
:100630006FF015033FE1A24A3B6A52F82330FB6199
:100640007B6803F00F03BB617B6803F44023B3F5C1
:10065000002F17D0B3F5402F17D0B3F5802F02D05D
:1006600000237B6214E07B6803F48073002B14BFCB
:1006700001230023DBB27868194600F035F9012325
:100680007B6205E002237B6202E003237B6200BF02
:10069000EFF3108372B67B817B89FB82FB691B6859
:1006A0007B63BB695B001A4603239340DB431A4616
:1006B0007B6B13407B63BB695B001A467B6A93408C
:1006C0007A6B13437B63FB697A6B1A6000233B638D
:1006D0007B6A032B0FD07B6803F44033B3F5803F74
:1006E00003D0B3F5003F03D005E001233B6302E0F4
:1006F00002233B6300BFFB690C331B687B63BB6950
:100700005B001A4603239340DB431A467B6B13407E
:100710007B63BB695B001A463B6B93407A6B134368
:100720007B63FB690C331A467B6B13607B6A022B7D
:1007300005D17B6803F470431B0B3B6301E000238E
:100740003B63BB69072B04D82023FB62BB69BB62F8
:1007500004E02423FB62BB69083BBB62FA69FB6AC5
:1007600013441B687B63BB6A9B001A460F239340AC
:10077000DB431A467B6B13407B63BB6A9B001A46C4
:100780003B6B93407A6B13437B63FA69FB6A1344B8
:100790001A467B6B13607B6A012B02D07B6A022BAB
:1007A00018D17B6803F44063B3F5006F0BD0B3F549
:1007B000406F0BD0B3F5806F02D000233B6308E09D
:1007C00001233B6305E002233B6302E003233B6319
:1007D00000BF01E000233B63FB6908331B687B63B8
:1007E000BB695B001A4603239340DB431A467B6BCD
:1007F00013407B63BB695B001A463B6B93407A6B8B
:1008000013437B63FB6908331A467B6B1360FB69F8
:1008100004331B687B63BB69012202FA03F33B6369
:100820007B6A012B02D07B6A022B09D17B6803F41F
:100830000073002B04D07A6B3B6B13437B6304E0A3
:100840003B6BDB437A6B13407B63FB6904331A46D3
:100850007B6B13607B6A012B25D07B6803F480736C
:10086000002B20D0BB6903F00C02164B13443B61F4
:100870003B691B687B63BB6903F003039B00FB6060
:100880000F22FB6802FA03F3DB431A467B6B13402B
:100890007B633A6AFB6802FA03F37A6B13437B6368
:1008A0003B697A6B1A60FB8A3B813B8913F0010F2D
:1008B00000D162B6002318463837BD4680BD00BF60
:1008C000D83003080838014080B582B000AF7860A6
:1008D0007B68DBB27B607868FFF79EFE03461846B4
:1008E0000837BD4680BD00BF80B487B000AF7860D8
:1008F0000B46FB707B6803F0F0031B093B613B690F
:10090000082B1CD8104A3B6952F82330FB607B68E7
:1009100003F00F03BB60FB78002B05D0BB680122FE
:1009200002FA03F37B6105E0BB6810331A4601232A
:1009300093407B61FB6818331A467B6913601C3750
:10094000BD465DF8047B7047D830030880B487B09B
:1009500000AF78607B6803F0F0031B097B617B6963
:10096000082B16D80E4A7B6952F823303B617B680E
:1009700003F00F03FB603B6910331B68FA68012129
:1009800001FA02F21340002B14BF01230023DBB253
:1009900000E0002318461C37BD465DF8047B704715
:1009A000D830030880B483B000AF0346FB7100BFAA
:1009B000064B1B6803F08003002BF9D0044AFB7937
:1009C00013600C37BD465DF8047B70470010014092
:1009D0000410014080B582B000AF204800211022F1
:1009E00000F0C0FE1E48FFF717FE1E48FFF714FE7A
:1009F0001D4B1B687B607B6823F47D537B601A4A28
:100A00007B681360194B1B687B607B6823F4BB53C6
:100A100023F01C037B60154A7B681360144B1B6832
:100A20007B607B6823F4E06323F001037B60104A62
:100A30007B6813600F4B40F2D9221A600B4B1B6886
:100A40007B607B6843F4005343F00C037B60074AF0
:100A50007B6813600837BD4680BD00BF4438024044
:100A6000097C09000A7C0900101001400C100140AB
:100A7000141001400810014080B483B000AF7860CA
:100A800039607B681A6D3B6813441B6818460C3745
:100A9000BD465DF8047B704780B485B000AFF86058
:100AA000B9607A60FB681A6DBB6813441A467B68AC
:100AB00013601437BD465DF8047B704780B584B081
:100AC00000AF78600B467B807B687A889A8778686D
:100AD0000C21FFF7D1FFF860FB6823F4D073FB60B3
:100AE0007B8803F4D073FA681343FB6078680C21A9
:100AF000FA68FFF7D1FF78681421FFF7BDFFF860AF
:100B0000FB6823F00103FB607B8803F00103FA68B4
:100B10001343FB6078681421FA68FFF7BDFF1037B4
:100B2000BD4680BD80B584B000AF78600B467B8049
:100B3000EFF3108372B6BB81BB89FB817B88786839
:100B40001946FFF7BBFFFB897B817B8913F0010FFF
:100B500000D162B61037BD4680BD00BF80B586B0FB
:100B600000AF78603960EFF3108372B67B817B89C8
:100B7000FB823B68002B17D078680C21FFF77CFFC5
:100B8000386178681421FFF777FFF8603B699BB202
:100B900003F4D0739AB2FB689BB203F001039BB2DB
:100BA00013439AB23B681A8078680021FFF786FFEA
:100BB000FB8A3B813B8913F0010F00D162B61837E5
:100BC000BD4680BD80B588B000AF78607B681B6B88
:100BD0003B6138690C21FFF74FFF78613B69DA6CA4
:100BE0003B695B6C5B08B2FBF3F3FB60FB685B0982
:100BF000FB61FB695B01FA68D31A01335B08BB61D7
:100C0000FB69002B0ED17B6943F400437B61FB68D9
:100C10001B09FB61FB691B01FA68D31A01335B08EE
:100C2000BB6103E07B6923F400437B61FB691B012B
:100C3000BB60BA68BB691343BB6038690C217A6931
:100C4000FFF72AFF38690821BA68FFF725FF7B699B
:100C500023F4B0537B613B6993F84130012B04D1FD
:100C60007B6943F4C0637B6108E03B6993F84130E2
:100C7000022B03D17B6943F480637B613B6993F86A
:100C80004230092B09D03B6993F84230082B08D138
:100C90003B6993F84130002B03D07B6943F48053C8
:100CA0007B6138690C217A69FFF7F6FE38691021FB
:100CB000FFF7E2FE78617B6923F440537B613B6977
:100CC00093F84330002B03D07B6943F400537B61DE
:100CD000386910217A69FFF7DFFE38691421FFF7C0
:100CE000CBFE78617B6923F440737B613869142102
:100CF0007A69FFF7D1FE2037BD4680BD80B586B04A
:100D000000AF78600B46FB707B681B6BFB60FB6879
:100D10001B6D114A934208D0104A934200D018E04C
:100D200010237B610E4B3B6105E04FF400337B6188
:100D30000C4B3B6100BFFB78002B05D038690021CC
:100D40007A6900F00FFD04E038697969002200F04B
:100D500009FD1837BD4680BD004400400010014029
:100D6000443802404038024080B584B000AF78601B
:100D70007B681B6BBB6078680121FFF7BFFFBB6816
:100D80005B6D1846FFF748FCBB689B6D1846FFF784
:100D900043FCB8681021FFF76FFEF860FB6823F48E
:100DA0007D53FB60BB6893F84330002B03D0FB6896
:100DB00043F40053FB60B8681021FA68FFF76CFE3B
:100DC000B8680C21FFF758FEF860FB6823F4BE7387
:100DD000FB60B8680C21FA68FFF75EFEB868142162
:100DE000FFF74AFEF860FB6823F4E06323F0010399
:100DF000FB60B8681421FA68FFF74EFE7868FFF7C9
:100E0000E1FEB8680C21FFF737FEF860FB6843F499
:100E1000005343F00C03FB60B8680C21FA68FFF73D
:100E20003BFEBB6800229A87BB68012283F8402002
:100E3000002318461037BD4680BD00BF80B584B082
:100E400000AF78607B681B6BFB60FB68002283F857
:100E50004020F8680021FFF781FE78680021FFF745
:100E60004DFFF8680C21FFF707FEB860BB6823F45C
:100E7000005323F00C03BB60F8680C21BA68FFF73D
:100E80000BFEFB685B6D1846FFF71EFDFB689B6D54
:100E90001846FFF719FD1037BD4680BD80B584B0F8
:100EA00000AF78607B681B6BFB60FB6893F8483091
:100EB00018460949FA6801F0A5FDB860BB68002B27
:100EC00005D1FB6893F84830184600F029FEBB684E
:100ED00018461037BD4680BD0D0F000880B584B0A0
:100EE00000AF78607B681B6BFB60FB6893F8483051
:100EF000184600F0EDFDFB6893F8483018460021D5
:100F0000002201F07FFD1037BD4680BD80B588B05E
:100F100000AFF860B9607A607B687B610123FB7683
:100F20000023FB613BE00023FB7678690021FFF79B
:100F3000A3FD03469AB27B69DA877B69DB8F03F0F6
:100F40002003002B0CD07B699B8F03F02003002B28
:100F500006D07B69184605F051FC0123FB7609E0B9
:100F60007B69DB8F03F00E03002B03D0786904212B
:100F7000FFF782FD7B69DB8F03F08003002B0BD032
:100F80007B699B8F03F08003002B05D07B6918469B
:100F900005F0DCFB0123FB76FB690133FB61FB6998
:100FA000FF2B02DCFB7E002BBDD10023184620372F
:100FB000BD4680BD80B58AB000AFF860B9607A6088
:100FC000FB689B683B623B6A1B69FB61FB691B6BAF
:100FD000BB6100237B62BB6840F20112934203D0E5
:100FE000B3F5817F32D072E07B687B617B69002B37
:100FF00003D16FF015037B626DE0BB695B6C7869B0
:10100000194606F059FBBB6993F84130002B01D01B
:10101000102200E00022BB6993F84130012B01D17E
:10102000202300E0002313439AB2BB6993F84330B6
:10103000002B01D0042300E0002313439BB243F0B4
:1010400003039BB29AB27B699A8044E07B683B6160
:101050003B69002B03D16FF015037B623BE03B69DA
:101060009B8803F00303032B03D06FF015037B620F
:1010700031E03B699B8803F01003002B0CD03B69E7
:101080009B8803F02003002B01D0012200E0022204
:10109000BB6983F8412003E0BB69002283F841204B
:1010A0003B699B8803F00403002B14BF012300233A
:1010B000DBB21A46BB6983F84320386906F0F0FAC0
:1010C0000246BB695A64F869FFF77CFD03E06FF0E4
:1010D00018037B6200BF7B6A18462837BD4680BD77
:1010E00080B584B000AF786039607B681B6BFB60B3
:1010F000F8680421FFF7C0FCB860FB68DB8F1B04B5
:101100001A46BB681A433B681A60FB680022DA87FC
:10111000BB68DBB218461037BD4680BD80B586B0CF
:1011200000AF78600B46FB707B681B6B3B61EFF395
:10113000108372B6BB81BB89FB813B699B8FFB82AD
:10114000FB78002B04D0FB8A43F02003FB8205E0F0
:10115000FB8A23F4907323F00103FB82FB8A386936
:101160001946FFF7DFFCFB897B817B8913F0010FB8
:1011700000D162B61837BD4680BD00BF80B584B0CF
:1011800000AF78607B681B6BFB60F8680021FFF79D
:1011900073FC034603F02003002B14BF012300233C
:1011A000DBB218461037BD4680BD00BF80B584B0A5
:1011B00000AF786039607B681B6BFB603B68F86848
:1011C00004211A46FFF768FC1037BD4680BD00BFFA
:1011D00080B586B000AF78600B46FB707B681B6BF8
:1011E0007B61EFF3108372B6FB81FB897B82FB7816
:1011F000002B0DD07B699B8F43F080033B823B8AA1
:1012000078691946FFF78EFC786805F09FFA08E0C8
:101210007B699B8F23F080039BB278691946FFF7A7
:1012200081FC7B8ABB81BB8913F0010F00D162B6C0
:101230001837BD4680BD00BF80B584B000AF786070
:101240007B681B6BFB60F8680021FFF715FC034609
:1012500003F08003002B14BF01230023DBB21846E8
:101260001037BD4680BD00BF80B485B000AF786048
:101270007B68013BFB60FB68002B08DBFB68052BF0
:1012800005DC0E4AFB6852F82330002B01D1002305
:101290000DE00A4AFB6852F8233093F84030002BE7
:1012A00001D1002303E0054AFB6852F823301846B9
:1012B0001437BD465DF8047B704700BF2C3103082E
:1012C00080B582B000AF00237B6010E00D4A7B68E0
:1012D00052F82330002B07D00A4A7B6852F823309B
:1012E00018460021FFF73AFC7B6801337B607B687E
:1012F000052BEBD9044B1846FFF736FD0837BD46E2
:1013000080BD00BF2C3103080000002080B586B0EE
:1013100000AF00233B611E4B1E48194605F09CF9A7
:101320001B4B1D48194605F097F901233B613B46CD
:1013300018461A4906F0C0F800237B6122E0184ADB
:101340007B6952F82330002B00D118E0144A7B69E6
:1013500052F82330DB78002B00D010E03B695A1C98
:101360003A61DBB23033DBB27B720D4A7B6952F8F3
:1013700023301A463B461846114605F06DF97B6945
:1013800001337B617B69052BD9D91837BD4680BDF8
:101390000000002044310308543103086031030881
:1013A0002C31030880B584B000AF78600E4BFB6031
:1013B00007F10A03F8681946FFF7D0FB7B680A2B90
:1013C00002D10D20FFF7EEFA7B68DBB21846FFF77B
:1013D000E9FA7B89F8681946FFF7A4FB7B68184691
:1013E0001037BD4680BD00BF0000002080B400AFB4
:1013F000044B1B680133034A1360BD465DF8047B50
:10140000704700BF000D002080B483B000AF0346DA
:10141000FB71FB7903F1804303F5E0431B68184639
:101420000C37BD465DF8047B704700BF80B483B0C5
:1014300000AF03463960FB71FB7903F1804303F58C
:10144000E0431A463B6813600C37BD465DF8047BE9
:10145000704700BF80B584B000AF0346B9607A60C2
:10146000FB73FB7B03F1804303F5E0431846B96847
:101470007A6800F077F91037BD4680BD80B584B03A
:1014800000AF0346FB710020FFF7BEFF0346FB8160
:10149000FB8923F48073FB81FB8900201946FFF749
:1014A000C5FF054B00221A80FB79184600F006F8AC
:1014B0001037BD4680BD00BF040D002080B586B04A
:1014C00000AF0346FB710023FB75EFF3108372B688
:1014D000FB81FB89BB820020FFF796FF03467B82DE
:1014E0007B8A03F48073002B14BF01230023DBB23B
:1014F0007B74FB79002B06D0214B1B8801339AB2F9
:101500001F4B1A8009E01E4B1B88002B05D01C4B7B
:101510001B88013B9AB21A4B1A807B7C002B0DD0A2
:10152000174B1B88002B09D17B8A23F480737B82A5
:101530007B8A00201946FFF779FF11E07B7C002BA6
:101540000ED10F4B1B88002B0AD07B8A43F480738B
:101550007B827B8A00201946FFF768FF0123FB7519
:10156000BB8ABB81BB8913F0010F00D162B6FB7D42
:10157000002B02D0042000F07BF81837BD4680BD58
:10158000040D002080B584B000AF03460A46FB710D
:101590001346BB71FB79002B07D14FF48073FB819D
:1015A00000BFBB79002B0AD002E06FF015030DE0FD
:1015B000FB89042000211A46FFF74CFF05E0FB8958
:1015C000042019460022FFF745FF00231846103774
:1015D000BD4680BD80B500AF0420FFF715FF034670
:1015E00003F00203002B14BF01230023DBB21846D3
:1015F00080BD00BF80B500AF0420FFF705FF0346A4
:1016000003F00103002B14BF01230023DBB21846B3
:1016100080BD00BF80B584B000AF0346FB710420DD
:10162000FFF7F2FE0346FB81FB8923F40073FB8185
:10163000FB79002B02D04FF4007200E00022FB89FE
:1016400013439BB2FB81FB8904201946FFF7EEFE92
:10165000FB79002B08D000BF0420FFF7D5FE03461E
:1016600003F00803002BF7D01037BD4680BD00BF44
:1016700080B485B000AF78600EE00023FB6002E02C
:10168000FB680133FB60FB6844F24C129342F7DDC8
:101690007B68A3F57A737B607B68B3F57A7FECD8BF
:1016A0000CE00023FB6002E0FB680133FB60FB6899
:1016B000B3F5D16FF8DB7B68643B7B607B68642BA0
:1016C000EFD80BE00023FB6002E0FB680133FB6016
:1016D000FB68A62BF9DD7B680A3B7B607B680A2BE5
:1016E000F0D80BE00023FB6002E0FB680133FB60F5
:1016F000FB68102BF9DD7B68013B7B607B68002B6E
:10170000F0D11437BD465DF8047B704780B485B0D6
:1017100000AF78600B467B8013463B80EFF310836D
:1017200072B67B817B89FB817B681B88BB817B8850
:10173000DB439AB2BB8913409BB2BB81BA893B8819
:101740001343BB817B68BA891A80FB893B813B8943
:1017500013F0010F00D162B61437BD465DF8047B6B
:10176000704700BF80B489B000AFF860B9607A609C
:10177000EFF3108372B6FB82FB8AFB83FB681B6866
:10178000BB61BB68DB43BA691340BB61BA697B6864
:101790001343BB61FB68BA691A60FB8BBB82BB8ACF
:1017A00013F0010F00D162B62437BD465DF8047B0B
:1017B000704700BF80B586B000AFF860B9607A604E
:1017C000EFF3108372B6FB8203200449044A05F04C
:1017D0002FFF0448A82100F00DFE00BF6C31030864
:1017E0005C3203088831030880B586B000AFF8602A
:1017F000B9607A60EFF3108372B6FB82054B1B6809
:1018000003200549054A05F013FF0548B02100F003
:10181000F1FD00BF28ED00E09C31030868320308A9
:101820008831030880B586B000AFF860B9607A608F
:10183000EFF3108372B6FB82054B1B68032005494A
:10184000054A05F0F5FE0548B82100F0D3FD00BFBC
:1018500028ED00E0C431030878320308883103081A
:1018600080B586B000AFF860B9607A60EFF310839E
:1018700072B6FB8203200449044A05F0D9FE0448ED
:10188000C02100F0B7FD00BFF03103088C3203081F
:101890008831030880B586B000AFF860B9607A601F
:1018A000EFF3108372B6FB8203200449044A05F06B
:1018B000BFFE0448C82100F09DFD00BF10320308A0
:1018C0009C3203088831030880B586B000AFF86009
:1018D000B9607A60EFF3108372B6FB82032004498B
:1018E000044A05F0A5FE0448D02100F083FD00BFA6
:1018F00038320308B03203088831030880B487B057
:1019000000AFF860B9607A603B60FB680F2B15DDB3
:10191000FB68103B7B617B695B1140339B001A467F
:101920003B68134403F1E022BB681A607B6903F053
:101930001F0301229A407B681A6027E0BB68174AA0
:101940001A60FB68042B04D17B684FF480321A6064
:101950001CE0FB68052B04D17B684FF400321A6051
:1019600014E0FB68062B04D17B684FF480221A60D8
:101970000CE0FB680F2B06D1BB68094A1A607B6834
:1019800001221A6002E04FF0FF3300E00023184606
:101990001C37BD465DF8047B704700BF24ED00E0B6
:1019A00010E000E080B584B000AF00237B600CE065
:1019B0007B685B1160339B0003F1E0231A464FF014
:1019C000FF3313607B6820337B607B68512BEFDD36
:1019D0002E4B2F4A1A602F4B4FF080321A602E4B3D
:1019E0004FF080321A602D4B4FF080321A602C4B32
:1019F0001B680133DB00BB602A4BFB6006E0FB6821
:101A00004FF080321A60FB680433FB60BB685A1EDB
:101A1000BA60002BF3D1244B00221A600B2023491B
:101A2000002200F0EFFF03202149002200F0EAFF2E
:101A300000F036FA02201F49002200F0E3FF0420E4
:101A40001D49002200F0DEFF05201C49002200F0A5
:101A5000D9FF06201A49002200F0D4FF0E201949B0
:101A6000002200F0CFFF0C201749002200F0CAFF2F
:101A700000201649002200F0C5FF00233B603B68B0
:101A800083F3118862B61037BD4680BD08ED00E0D3
:101A90000000000818ED00E01CED00E020ED00E083
:101AA00004E000E000E400E0D83D00200925000843
:101AB00085240008B517000831240008E91700083C
:101AC000251800086118000895180008C9180008B2
:101AD00080B586B000AF786007F1100207F10C0303
:101AE000786811461A468023FFF708FF0346002B4B
:101AF00013D17B680F2B04DD3B691A46FB6813602A
:101B00000BE03B691B687B61FB68DB437A69134030
:101B10007B613B691A467B6913601837BD4680BDFF
:101B200080B586B000AF786007F1100207F10C03B2
:101B3000786811461A460023FFF7E0FE0346002BA3
:101B400012D17B680F2B04DD3B691A46FB681360DA
:101B50000AE03B691B687B61FB687A6913437B6120
:101B60003B691A467B6913601837BD4680BD00BFCC
:101B700080B483B000AF78600C37BD465DF8047B5D
:101B8000704700BF80B500AF0120FFF797FC034B03
:101B9000CA221A60014B53221A6080BD24280040DB
:101BA00080B500AF034BFF221A600020FFF786FCD0
:101BB00080BD00BF2428004080B584B000AFFFF78F
:101BC000E1FF144B1B68BB60BB6823F02003BB60C4
:101BD000104ABB6813606FF07303FB6000237B60E7
:101BE0000DE00C4B1B68BB60BB6803F02003002BAF
:101BF00002D00023FB6006E07B6801337B607B68DA
:101C0000B3F5003FEDD3FFF7CBFFFB681846103765
:101C1000BD4680BD0C28004080B485B000AF164B97
:101C20001B68BB600023FB60BB6803F04003002B14
:101C30001AD1114B80221A606FF07303FB600023EE
:101C40007B600DE00C4B1B68BB60BB6803F040037E
:101C5000002B02D00023FB6006E07B6801337B6031
:101C60007B68B3F5803FEDD3FB6818461437BD465B
:101C70005DF8047B704700BF0C28004080B483B03F
:101C800000AF074B1B687B607B6823F080037B60A1
:101C9000034A7B6813600C37BD465DF8047B7047D0
:101CA0000C28004080B485B000AF78600023FB6052
:101CB00005E0FB680133FB607B680A3B7B607B6867
:101CC000092BF6DCFB681A017B68134318461437AE
:101CD000BD465DF8047B704780B485B000AF786086
:101CE0007B681A0913469B0013445B00FB607B680A
:101CF00003F00F02FB68134418461437BD465DF825
:101D0000047B704780B582B000AFFFF73BFFFFF761
:101D100083FF78607B68002B0ED10B4B1B683B6008
:101D20003B6823F040033B60074A3B681360074B66
:101D3000074A1A60FFF7A2FFFFF732FF7B681846D9
:101D40000837BD4680BD00BF08280040102800406D
:101D5000FF007F0080B400AFBD465DF8047B704794
:101D600080B588B000AF0A237B610023BB61454B7F
:101D70001B683B610120FFF7A1FB3B69424A93428C
:101D800011D03B69414A93420DD041484FF4407114
:101D90004FF48072FFF7E6FC3D4800214FF400420B
:101DA000FFF7E0FC30E03A4B1B68FB60FB6803F494
:101DB0004073B3F5807F27D0364B1B68BB60364B32
:101DC0001B687B60324800214FF48032FFF7CAFC69
:101DD0002F484FF480310022FFF7C4FC2C484FF409
:101DE00040714FF48072FFF7BDFC2A4ABB68136054
:101DF000294A7B681360234B234A1A602448002138
:101E00004FF40042FFF7AEFC0020FFF757FBFFF74F
:101E1000D3FEF861FB69002B00D000E000BFFB6936
:101E2000002B06D0BB690133BB61BA697B699A425A
:101E3000EDDB3B69144A934210D03B69134A93424D
:101E40000CD0FFF75FFFF8610120FFF737FB0D4B68
:101E50000D4A1A600020FFF731FB01E0FFF77AFF1F
:101E6000FB69002B05D0BB69002B02DD6FF073030B
:101E700003E00A4B01221A70002318462037BD46A2
:101E800080BD00BF50280040EEFECEFAEFFECEFA35
:101E9000703802400028004004280040060D002051
:101EA00080B400AF00231846BD465DF8047B704740
:101EB00080B586B000AF78602B4B1B687B612B4BE5
:101EC0001B683B61284B1B68FB60FA687B699A4280
:101ED00000D100E0F0E73B6903F07F03FB60F868A6
:101EE000FFF7FAFE02467B681A603B6903F4FE4383
:101EF0001B0AFB60F868FFF7EFFE02467B685A603A
:101F00003B6903F47C131B0CFB60F868FFF7E4FEED
:101F100002467B689A607B6903F03F03FB60F868C8
:101F2000FFF7DAFE02467B68DA607B6903F4F85358
:101F30001B0AFB60F868FFF7CFFE03465A1E7B685A
:101F40001A617B6903F47F031B0CFB60F868FFF7E1
:101F5000C3FE034603F164027B685A6100231846FE
:101F60001837BD4680BD00BF04280040002800404F
:101F700090B587B000AF78607B681B681846FFF7A4
:101F800091FE04467B685B681846FFF78BFE0346AC
:101F90001B021C437B689B681846FFF783FE0346C1
:101FA0001B0423433B617B68DB681846FFF77AFE1E
:101FB00004467B681B6901331846FFF773FE03462E
:101FC0001B021C437B685B69643B1846FFF76AFE93
:101FD00003461B042343FB60FB6823F07F4323F08D
:101FE000C003FB60FFF7CEFDFFF716FE78617B694B
:101FF000002B0AD10F4A3B6913600F4AFB6813603C
:10200000FFF73CFEFFF7D8FD78610C4B1B680C4ACC
:10201000934208D00120FFF751FA084B084A1A6092
:102020000020FFF74BFAFFF7BBFD7B6918461C3712
:10203000BD4690BD002800400428004050280040C4
:10204000EFFECEFA80B588B000AF78607A6807F10D
:1020500008031046194605F0F5FB07F1080318467A
:10206000FFF786FF034618462037BD4680BD00BFF8
:1020700080B483B000AF6B467B607B6818460C373A
:10208000BD465DF8047B7047F0B58DB008AF786051
:1020900039607B6823F01F03FB602BE0FB68BB60AB
:1020A000BB68D3F800E0BB6804331E68BB68083324
:1020B0001D68BB680C331C68BB6810331868BB68AC
:1020C00014331968BB6818331A68BB681C331B6863
:1020D000CDF800E0019602950394049005910692D4
:1020E000079300200749084AFB6805F0A1FAFB683E
:1020F0002033FB60FA683B689A42CFD31437BD4661
:10210000F0BD00BFC032030870340308B0B586B01C
:1021100004AF786039607B6803F1CC057B689B89EC
:102120001CB2786800F064FA02467B689B6A0094EF
:102130000192029300200449044A2B4605F078FAE4
:102140000837BD46B0BD00BFF43203088034030831
:1021500080B500AF0248002100F0CEFC80BD00BF7A
:102160000D210008F0B58BB008AF3F4B1B68002B6A
:1021700077D03D4B1B682C33D3F800E03A4B1B68FB
:1021800030331E68384B1B6834331D68364B1B6870
:1021900038331C68344B1B6808331868324B1B6893
:1021A0000C331968304B1B6810331A682E4B1B68B0
:1021B00014331B68009601950294039004910592D4
:1021C0000693002029492A4A734605F031FA264B26
:1021D0001B681833D3F800E0234B1B681C331E68C0
:1021E000214B1B6820331D681F4B1B6824331C6860
:1021F0001D4B1B683C3318681B4B1B6819681A4B36
:102200001B6840331A68184B1B6844331B680096E0
:1022100001950294039004910592069300201549BC
:10222000134A734605F004FA0F4B1B6848331C68C9
:102230000D4B1B6804331A68EFF314837B607B68D3
:102240000092019300200C49094A234605F0F0F959
:10225000054B1B6828331B6800200849044A05F019
:10226000E7F90C37BD46F0BDD83D00201C3303080C
:102270009C3403085033030884330308B033030845
:1022800080B586B000AF434B1B68BB60FFF7F0FE24
:102290007861BB689B89002B07D13F4B1B68043BCF
:1022A0003B614FF48063FB6005E0BB681B6B3B61E7
:1022B000BB689B6AFB60394B7B604FF400633B60FB
:1022C00000203749374A7B6905F0B2F900203649CA
:1022D000344A05F0ADF900203449324A7B6805F0F4
:1022E000A7F9002032492F4A3B6805F0A1F900F018
:1022F000BBF9034600202F492A4A05F099F97A696B
:102300007B689A4209D87A683B68D21A7B699A42FC
:1023100003D278697968FFF7B7FE274B1B68002B5B
:1023200009D0254B1B681B687B6100201C491D4A96
:102330007B6905F07DF9002020491A4A05F078F9FB
:1023400000201A49174A3B6905F072F90020184924
:10235000144AFB6805F06CF9B86800F049F90346C7
:10236000002014490F4A05F063F97A693B699A42E3
:1023700009D83A69FB68D21A7B699A4203D2786914
:102380003969FFF781FEFFF7EDFEFFF7E1FE183731
:10239000BD4680BDEC3D00206D35030800160020D1
:1023A000C83303088C340308DC330308EC33030818
:1023B0000034030814340308D83D002028340308EF
:1023C00080B584B000AF7860084B1B68002B04D147
:1023D000074B1B689B89002B04D1EFF3108372B667
:1023E000FB81FEE7786800F039FE00BFD83D002091
:1023F000EC3D002080B586B002AF78603960094BB3
:102400001B68FB60FB68CC333A68009201930020A4
:102410000549064A7B6805F00BF9FFF731FF0120FB
:10242000FFF7CEFFEC3D00203C340308AC3403083A
:1024300090B589B002AFF860B9607A60EFF31083AD
:1024400072B6FB8200200949094A05F0F1F8094BF0
:102450001C68094B1B68009300200849044A234666
:1024600005F0E6F806487621FFF7C4FFB834030804
:102470001C35030828ED00E034ED00E0E0340308EB
:102480000435030880B588B000AFF860B9607A60A1
:10249000BB68FB61FB6944331B68023BBB61BB69E2
:1024A000134A934211D3BB69124A93420DD2BB69BE
:1024B0001B88FB82FB8AB3F55F4F06D1F868B968C9
:1024C0007A6800F021F803460EE0EFF3108372B64D
:1024D000BB82094B1B6800200849094A05F0A8F88F
:1024E0000848AB21FFF786FF18462037BD4680BD60
:1024F00000000008F88D03082CED00E028350308E3
:10250000603503084835030880B586B000AFF86031
:10251000B9607A60BB687B617B69DB6A3B613B6960
:10252000012B0DD0012B02D3022B10D01EE07B69B2
:1025300030331B68184679694C2205F039F815E0EC
:102540007B6930331B681A460B4B1A600EE07B69BF
:1025500030331B68184679694C2205F029F87B69ED
:1025600034331B681A46044B1A6000BF0023184618
:102570001837BD4680BD00BFD83D002080B489B06B
:1025800000AFF860B9601346FB71BB68002B01D146
:10259000002324E0FB6823F003037B61FA68BB6837
:1025A0001344033323F003033B613A697B69D31A75
:1025B000BB607B69FB61BB689B08BB6105E0FB6995
:1025C0000433FB61BB69013BBB61FB691B68074AC4
:1025D000934202D1BB69002BF1D1BB699B00184625
:1025E0002437BD465DF8047B704700BFEFBEADDE0B
:1025F00080B582B000AF78607B68DB6A1A467B6882
:102600009B6A104619460022FFF7B8FF034618469A
:102610000837BD4680BD00BF90B583B000AF78607D
:102620007B689B6A1C467868FFF7E2FF0346E31A63
:1026300018460C37BD4690BD80B500AF034B1B68F4
:102640001846FFF7D5FF0346184680BDEC3D002035
:1026500080B500AF034B1B681846FFF7DDFF03464C
:10266000184680BDEC3D002080B500AF044B1846F5
:102670004FF400610122FFF781FF0346184680BD39
:10268000000E002080B500AFFFF7EEFF0346C3F554
:102690000063184680BD00BFEFF305801EF0040FF5
:1026A00002D0EFF309818D466A4602F12002EFF372
:1026B00010832DE9FC4F72B669466C46DFF838D0BE
:1026C00000F01CF82146884209D000F12C01B1E845
:1026D000F00F016821E9F00FB0E8FC4F01E0B1E82C
:1026E000FC4F1EF0040F0CBF81F3088881F30988AA
:1026F00083F31088704700000016002080B584B076
:1027000000AF786039600C4B1B68FB600A4A3B687D
:1027100013607868FFF72CFA7868396800F0AEF932
:10272000054B1B683B60044AFB6813603B68184616
:102730001037BD4680BD00BFD83D002080B500AF3A
:10274000054B002B01D029F0FDF8044B002B01D0E4
:10275000AFF3008080BD00BF45B902080000000053
:1027600080B586B000AF754B01221A70744B002201
:102770001A60734B00225A60724B00221A60714B30
:1027800000225A60704B00221A606F4B00225A6080
:102790006E4B00221A606D4B00225A606C4B002277
:1027A0001A606B4B00225A606A4B00221A60694B18
:1027B00000225A60684B00221A60674B00225A6060
:1027C000664B00221A60654B00225A60644B00225F
:1027D0001A8000237B610EE0624A7B69002142F887
:1027E0003310604A7B69DB0013444FF6FF729A8016
:1027F0007B6901337B617B691F2BEDDD584B1B88A7
:102800009BB29BB203F01F033B61564A3B6956499A
:1028100042F83310524B1B8899B2524A3B69DB0095
:1028200013440A469A8050480021F02204F028FE02
:102830004B4B1B889AB24C4B9A814B4B03229A7696
:10284000494B4A4A1A61484B484A5A61464B06224C
:102850009A83474847491F2204F07EFE424B0022DC
:1028600083F8EB20444B424A1A60434B00225A60E3
:102870003D4B414AC3F8EC20314BFB603A48F968C4
:1028800004F016FC384805F04DFD2C4B02221A705E
:1028900007F108023B1D1046194605F0C3FBBA6854
:1028A0007B681046194605F0C5F8244B03221A70C0
:1028B000324B002B01D000F099FD314B002B01D0A1
:1028C00002F0D2FF2F4B002B01D001F0F5FB2E4B75
:1028D000002B01D0AFF300802C4B002B01D002F075
:1028E00087F82B4B002B01D021F0D0F8294B002B7F
:1028F00001D01FF065FE13F0F9FB05F0EFFC0F4B64
:1029000004221A70184B9B8BDBB21748194600F053
:10291000A7FC154800F0F2FC134800F0DDFC124B58
:102920009B6801221A70022003F0C4FF034B0522AA
:102930001A7000F05DF805F0A5FBFCE7F43D0020FF
:10294000EC3D0020103F0020E43D0020083E002028
:10295000F83D0020DC3D0020003E00201C3F002010
:10296000183F0020103E00200016002061270008BC
:10297000CC160020BC350308F0160020ED3300080B
:1029800069580008B940000800000000F14900083B
:102990008D3A0208C125020880B500AF00F082FB25
:1029A00000F0EEFB80BD00BF80B584B002AF002315
:1029B0000093094864214FF40062084B00F04EF97F
:1029C00078607B68002B04DC054840F20D11FFF7AE
:1029D00011FD0837BD4680BDC8350308358700089E
:1029E000D035030880B500AFFFF7DEFF80BD00BF24
:1029F00080B500AFFFF7D0FFFFF7F4FF00231846C4
:102A000080BD00BF80B588B000AFF860B9607A6063
:102A10004FF0FF33FB61FB68612B25D8FB68BB617E
:102A2000EFF3108372B6BB82BB8AFB82BB68002BBC
:102A300006D1F868FFF74CF80E4BBB6000237B60B3
:102A40000D49BB69BA6841F833200B4ABB69DB000A
:102A500013447A685A60FB8A7B827B8A13F0010FE9
:102A600000D162B60023FB61FB6918462037BD46E2
:102A700080BD00BFC52A0008443F002080B584B057
:102A800000AF786039607B68612B04D90B4BFB6029
:102A90000023BB600AE00A4A7B6852F83330FB60CF
:102AA000074A7B68DB0013445B68BB60FB6878689F
:102AB0003968BA6898471037BD4680BDC52A0008F6
:102AC000443F002080B586B000AFF860B9607A60FE
:102AD000EFF3108372B6FB8203200449044AFB68BB
:102AE00004F0A6FD03484121FFF784FCE435030808
:102AF00010360308F835030880B586B000AF78605B
:102B00003960EFF3108372B63B823B8A7B820023ED
:102B10007B6110E00E4A7B6952F83330002B07D0FE
:102B20000B4A7B6952F833207B6810463968984716
:102B30007B6901337B617B691F2BEBDD7B8AFB812A
:102B4000FB8913F0010F00D162B61837BD4680BD76
:102B5000103E002080B58AB002AFF8607A603B601A
:102B60000B46FB72F02004F0A5FFB861BB69002B97
:102B700002D10C23FB6162E0FB7AB869194600F0D0
:102B80006FFB78617B69002B03DA7B695B42FB6139
:102B900050E0B86900F012FC78617B69002B03DA21
:102BA0007B695B42FB6145E03A68FB7AB869114694
:102BB0001A4605F0EDFA78617B69002B03DA7B6930
:102BC0005B42FB6136E0FB7A0093B8697968214A81
:102BD000BB6A00F0C3F978617B69002B03DA7B697B
:102BE0005B42FB6126E0B869F968FA6A00F0DEF939
:102BF000B86900F071FB78617B69002B03DA7B69AF
:102C00005B42FB6116E0BB699B897B82B86900F07F
:102C1000E1F978617B69002B09DA00F003FB0346D8
:102C20001B68FB61B8690C4904F066FA02E0B7F969
:102C300012300BE0FB7AB869194600F059FC00F03D
:102C4000F1FA0246FB6913604FF0FF331846203754
:102C5000BD4680BD09300008003E002080B586B02A
:102C600002AFF860B9607A603B603B680093BB6973
:102C70000193F8680021BA687B68FFF76BFF034691
:102C800018461037BD4680BD80B586B002AFF860EB
:102C9000B9607A603B603B680093BB690193F86858
:102CA0000221BA687B68FFF755FF034618461037C4
:102CB000BD4680BD80B586B000AF786000F04CFCAA
:102CC00000233B6133E01F4B1B889BB29BB2013357
:102CD0009BB29BB29BB21B4A19461180FB82B7F98B
:102CE0001630002B04DC174B01221A800123FB82D3
:102CF000FB8A03F01F03FB60134AFB6852F8333072
:102D0000002B11D11049FB687A6841F833200E4A34
:102D1000FB68DB001344FA8A9A807B68FA8A9A81FE
:102D200000F038FC002309E03B6901333B613B695B
:102D30001F2BC8DD00F02EFC4FF0FF33184618376C
:102D4000BD4680BD183F0020103E002080B586B0F3
:102D500000AFF860B9607A603B60F868FFF7AAFFDF
:102D600078617B69002B3BD1BB68DAB2FB681A76CD
:102D7000BB68DAB2FB685A76FB687A681A613A680F
:102D8000FB685A6197F8203003F0030387F820307E
:102D9000FB689B8B23F003039AB2FB689A83FB6862
:102DA0009A8B97F820309BB213439AB2FB689A83B0
:102DB000FB683833032000211A4600F041FCFB6811
:102DC00000229A76F86805F0ADFA00F0C5FBF868C5
:102DD000064904F06DF9FB6804229A7600F0DAFBEC
:102DE0007B6918461837BD4680BD00BF003E0020F5
:102DF00080B582B000AF786039603B68002B01D1AC
:102E0000074B3B607B68CC33184639681F2204F0BF
:102E1000A3FB7B68002283F8EB200837BD4680BD0A
:102E20002436030880B58AB000AF786039607B68CB
:102E3000CC337B61786904F077FB034601333B6256
:102E40000023FB613B68002B26D01EE0FB699B0042
:102E50003A6813441B68184604F066FB03460133C6
:102E60003A6A13443B627B689A6A3B6A9A4202D888
:102E70006FF05A036DE0FB690133FB61FB69B3F549
:102E8000807F02DD6FF0060363E0FB699B003A6818
:102E900013441B68002BD9D1FB6902339B003B61B3
:102EA00079683A693B6A13440846194605F07AFB8B
:102EB000F860FB68002B02D16FF00B0349E0FA6861
:102EC0003B6913447B62FB687A6A1A60786904F094
:102ED0002BFB03460133BB60786A796904F0ECFA96
:102EE000BB687A6A13447B620023BB6121E0BB6943
:102EF00001339B00FA6813447A6A1A60BB699B002D
:102F00003A6813441B68184604F00EFB034601336D
:102F1000BB60BB699B003A6813441B68786A19461A
:102F200004F0CAFABB687A6A13447B62BB69013356
:102F3000BB61BA69FB699A42D9DBFB6901339B002B
:102F4000FA68134400221A607B68FA68C3F8EC2020
:102F5000002318462837BD4680BD00BF80B586B027
:102F600002AFF860B9607A603B603B7E0093F8681E
:102F7000B9687A683B68FFF7E9FE034618461037E0
:102F8000BD4680BD80B586B002AFF860B9607A609A
:102F90003B6001230093F868B9687A683B68FFF7E3
:102FA000D5FE034618461037BD4680BD80B584B0B7
:102FB00000AFF860B9607A60F868B968FFF718FF89
:102FC000F8687968FFF72EFF034618461037BD46AC
:102FD00080BD00BF80B584B000AF7860EFF3108390
:102FE00072B6BB81BB89FB81786805F00DFBFB895C
:102FF0007B817B8913F0010F00D162B60023184654
:103000001037BD4680BD00BF80B584B000AF124B05
:103010001B68BB600123FB6009E0FB680133FB60B8
:10302000FB68B3F5807F02DD012000F017F8BB6874
:10303000D3F8EC20FB689B0013441B68002BECD1F9
:10304000BB685B69BA68D2F8EC20F868114698470B
:103050007860786800F002F8EC3D002080B584B01C
:1030600000AF7860064B1B68FB607B68DBB27B605F
:10307000F8687968002200F085FE786805F0FCF8B1
:10308000EC3D002080B582B000AF78603960044B21
:103090001B6803481946002200F0ECFEF7E700BF6A
:1030A000243F002080B584B002AF164B64221A6022
:1030B000144B00225A60134B00229A6000230093A5
:1030C0001148E0214FF40062104BFFF7DDFD03468D
:1030D000FB80B7F90630002B07DA00F0A3F80346AF
:1030E0001B683B603B685B4207E0064AFB889381B4
:1030F000044B01229A73B7F9063018460837BD46CB
:1031000080BD00BF243F0020303603088530000812
:1031100080B586B000AF7860396000F05FFE03468E
:10312000FB8100237B6100233B6110E0134A3B6974
:1031300002339B0013449B88B7F90E201BB29A42BE
:1031400002D13B697B6105E03B6901333B613B692F
:10315000002BEBDD7B69002B05DD084800217A6937
:1031600000F088FE08E000F095F9044B1B68034866
:103170001946002200F07EFEECE700BF343F00203D
:1031800080B586B002AF24480021102204F078F9FF
:10319000214B32221A60204B00225A601E4B002223
:1031A0009A6000F0D9F90023FB6029E00023009326
:1031B0001A4832214FF40062194BFFF765FD0346B0
:1031C0007B81B7F90A30002B09DA00F02BF80346AF
:1031D0001B687B6000F0DEF97B685B4218E00E4AFA
:1031E000FB6802339B0013447A899A800A4AFB6881
:1031F00002339B00134401229A71FB680133FB6088
:10320000FB68002BD2DD00F0C5F9034B9B891BB294
:1032100018461037BD4680BD343F002038360308BD
:103220001131000880B582B000AF05F09DF803466B
:10323000002B0CD1084B1B687B607B68002B06D0F1
:103240007B689B7E032B02D17B686C3300E0034BD1
:1032500018460837BD4680BDEC3D0020F81600201A
:1032600080B584B000AF78600B46FB704FF4F2700D
:1032700004F020FCF860FB68002B02D16FF00B0318
:1032800026E07B68FA689A60F86801F0BBF8B860DD
:10329000BB68002B07DAF86804F0EEFB7B680022BD
:1032A0009A60BB6814E0FB680C33184600210122C9
:1032B00003F04CFFFB68043318460021002203F0A2
:1032C00045FFFB6804331846002103F079FF002313
:1032D00018461037BD4680BD80B485B000AF786019
:1032E0007B689B68FB60FB6801225A7000231846CC
:1032F0001437BD465DF8047B704700BF80B584B0CD
:1033000000AF78607B689B68FB60FB6834331846CD
:1033100012F034FF1048032113F08EFBB860BB6835
:10332000002B0CD10020012113F0BEF90020022156
:1033300013F0BAF9786801F0F1F8034607E0BB68CA
:10334000002B02DDB86813F08DF96FF016031846F4
:103350001037BD4680BD00BF4036030880B586B03B
:1033600000AF7860144B1B683B613B699B68383346
:10337000FB607B689B683833BB6000237B6115E092
:103380007B691B01FA6813449B68002B0BD07B6997
:103390001B01FA68D1187B691B01BA6813440846FF
:1033A000194612F015FF7B6901337B617B69072B9E
:1033B000E6DD1837BD4680BDEC3D002080B584B009
:1033C00000AF78607B689B68FB60FB68343318460D
:1033D00012F0D4FE7868FFF7C1FF786801F09EF81C
:1033E000034618461037BD4680BD00BF80B483B089
:1033F00000AF00237B600DE00A4A7B680A4942F86F
:103400003310084A7B68DB00134400225A607B6853
:1034100001337B607B68612BEEDD0C37BD465DF8C8
:10342000047B7047443F0020C52A000880B584B063
:1034300000AF16E0EFF3108372B6FB80FB88FB81D0
:103440000B4803F0EBFDB860FB89BB80BB8813F031
:10345000010F00D162B6BB68002B02D0B86804F03F
:103460000BFB034B1B68002BE4D11037BD4680BD1E
:103470001C3F002080B400AF054B1B68002B14BF1D
:1034800001230023DBB21846BD465DF8047B70477C
:103490001C3F002080B500AFFFF7C8FF80BD00BF14
:1034A00080B500AFFFF7E6FF0346002B14BF0123F2
:1034B0000023DBB2184680BD80B485B000AF034660
:1034C000FB80FB8803F01F03FB60084AFB680021B8
:1034D00042F83310054AFB68DB0013444FF6FF72D5
:1034E0009A801437BD465DF8047B7047103E00207B
:1034F00080B584B000AF78600B46FB700023FB60A2
:103500007B68002B21D0134B002B05D07B689B8957
:103510001BB21846AFF300807B689B89002B05D057
:103520007B689B891BB21846FFF7C6FF7B68DB6A86
:10353000002B04D0FB787868194604F05FFF7868A8
:1035400000F0CEFF786801F0A5F8FB681846103748
:10355000BD4680BD0000000080B582B000AF0C4BBE
:103560001B687B607B68002B0DD004F0FDFE0346DA
:10357000002B08D17B68DB8B9BB29BB201339BB2E3
:103580009AB27B68DA83002318460837BD4680BDAF
:10359000EC3D002080B584B000AF274B1B68FB607A
:1035A000254B1B68FB60FB68002B3FD004F0DCFE62
:1035B0000346002B3AD1EFF3108372B63B813B896F
:1035C0007B81FB68DB8B1BB2002B08DDFB68DB8B90
:1035D0009BB29BB2013B9BB29AB2FB68DA83FB6859
:1035E000DB8B1BB2002B1ADCFB680022DA83134B47
:1035F0001B68002B01D004F0C7FEFB689B8B03F017
:103600006003202B0BD1FB681B6A002B07D10A4BF0
:103610001A68FB689A4202D0FB68C8221A627B894A
:10362000FB80FB8813F0010F00D162B6002318461F
:103630001037BD4680BD00BFEC3D0020103F00208C
:1036400080B58AB000AFF860B9607A60244B1B681F
:103650003B6200237B62FFF77FFF3B6A9B6BFB6152
:103660007B68002B02D07B68FA691A60BB68002B6C
:103670002FD0EFF3108372B63B833B8B7B83FB68C9
:10368000022B0BD0032B12D0012B15D13B6A9A6B66
:10369000BB681B681A433B6A9A6311E03B6A9A6BEA
:1036A000BB681B68DB431A403B6A9A6308E0BB684F
:1036B0001A683B6A9A6303E06FF015037B6200BFF0
:1036C0007B8BFB82FB8A13F0010F00D162B600F006
:1036D00027F8FFF75FFF7B6A18462837BD4680BD95
:1036E000EC3D002080B586B000AFF860B9607A602C
:1036F000F868B9687A68FFF7A3FF78617B69002BE7
:1037000008DAFFF78FFD02467B695B4213604FF0DA
:10371000FF337B617B6918461837BD4680BD00BF0B
:1037200090B585B000AF1B4B1B68FB60FFF714FF23
:10373000FB689B6BDC43F86801F0F2F90346234019
:103740003B601EE03B46184600F0A4F8B860BB683A
:10375000B3F1FF3F15D03B461846B96803F086FD2C
:10376000F868B96800F018F878607B68002B08D01A
:103770007B680433F868194600F09EF9786800F019
:103780004BF83B68002BDDD1FFF704FF1437BD4633
:1037900090BD00BFEC3D002080B588B000AF7860E0
:1037A00039607B689B687B61EFF3108372B63B8264
:1037B0003B8A7B820023BB617B695B6AFB6104E01F
:1037C000FB69BB61FB691B68FB61FB69002B05D0D2
:1037D000FB691B791A463B689A42F1D1FB69002BC1
:1037E0000ED0BB69002B06D07B692433B86919461B
:1037F00003F034FC04E07B692433184603F00EFC2C
:103800007B8AFB81FB8913F0010F00D162B6FB6953
:1038100018462037BD4680BD80B586B000AF7860C1
:103820007B681B7B002B11D1EFF3108372B6BB8238
:10383000BB8AFB827868154903F062FBFB8A7B82B6
:103840007B8A13F0010F00D162B61CE07B681B7B02
:10385000022B11D1EFF3108372B63B823B8AFB82BD
:1038600078680B4903F04CFBFB8AFB81FB8913F062
:10387000010F00D162B606E07B681B7B012B02D1F1
:10388000786800F007FF1837BD4680BD80420020F1
:103890007842002080B584B000AF78600023FB60E0
:1038A0000BE07868F96803F00FFD0346002B01D0A8
:1038B000FB6807E0FB680133FB60FB681F2BF0DD52
:1038C0004FF0FF3318461037BD4680BD80B588B035
:1038D00000AF786039600023FB61FFF73DFE7B6835
:1038E0009A683B681B781046194601F061FAB86186
:1038F000BB69002B2FD0BB695B68002B2BD001F07C
:103900007BFA78617B69002B03D16FF00B03FB61BD
:1039100021E0BB695A687B695A60BB699A687B6918
:103920009A607B690C3318463968082203F040FE20
:10393000EFF3108372B63B823B8A7B827B68403315
:103940007869194603F0DCFA7B8AFB81FB8913F066
:10395000010F00D162B6FFF71DFEFB691846203744
:10396000BD4680BD80B584B000AF04F0FDFC0346C9
:10397000002B0BD0184803F051FBF860FB68002BBC
:1039800025D1164803F04AFBF86020E0EFF31083DE
:1039900072B63B813B897B810F4803F03FFBF860A7
:1039A0007B89FB80FB8813F0010F00D162B6FB68B6
:1039B000002B0CD1FB68002B03D1102004F06AF817
:1039C000F860FB68002B02D0FB6801221A73FB68C9
:1039D00018461037BD4680BD804200207842002046
:1039E00080B487B000AF7860396000237B61EFF36B
:1039F000108372B63B823B8A7B827B685B6A7B6109
:103A000002E07B691B687B617B69002B05D07B69C9
:103A10001B791A463B689A42F3D17B8AFB81FB896A
:103A200013F0010F00D162B67B6918461C37BD4602
:103A30005DF8047B704700BF80B586B000AF78604A
:103A400039607B689B683B613B681B783869194625
:103A5000FFF7C6FF78617B69002B07D07B690433D1
:103A600018463968082203F0A3FD1FE0FFF77AFF2C
:103A700078617B69002B19D07B690433184639685B
:103A8000082203F095FDEFF3108372B6BB81BB896A
:103A9000FB813B6924337869194603F031FAFB89CD
:103AA0007B817B8913F0010F00D162B67B691846D8
:103AB0001837BD4680BD00BF80B586B000AF7860C6
:103AC000396000237B617B6803F138023B681B7817
:103AD0001046194603F0F8FB0346002B3ED0EFF3E7
:103AE000108372B63B823B8A7B827B689B7E062B6F
:103AF00021D17B6803F13C023B681B7810461946D4
:103B000003F0E2FB0346002B15D07B6850331846C8
:103B10003968082203F04CFD7B680022DA6378687C
:103B200004F072FD7B8AFB81FB8913F0010F00D149
:103B300062B600BF4DE07B8ABB81BB8913F0010FE9
:103B400000D162B678683968FFF776FF0346002B2C
:103B50003FD122484FF4AA71FEF74CFC78683968CF
:103B6000FFF7B4FE7861EFF3108372B67B817B8937
:103B70007B8278681A4904F059FC7B689B7E062B8F
:103B80000CD17B68503318463968082203F010FDC9
:103B90007B680022DA63786804F036FD7B8A3B811B
:103BA0003B8913F0010F00D162B67B689B7E052B29
:103BB00003D17868042100F093FE7B689B7E072B7D
:103BC00003D07B689B7E082B03D17868042100F02A
:103BD000FBFC7B6918461837BD4680BD503603088C
:103BE0001D3C000880B584B000AF03463960FB80FF
:103BF000B7F90630184600F07BFDF860FB68002B33
:103C000002D16FF0020304E0F8683968FFF754FF4F
:103C1000034618461037BD4680BD00BF80B58AB048
:103C200000AF7860FFF798FC7B68DB6E3B627B68D7
:103C30001B6C7B6252E07B6A1B68FB61EFF31083B5
:103C400072B67B827B8A7B837B684033786A1946B5
:103C500003F0ACF97B684833786A194603F050F9F1
:103C60007B8B3B823B8A13F0010F00D162B67B68ED
:103C70009B6B7B617B6A9A687B691A437B6A1B7BBF
:103C8000194601238B401A437B689A637B6A5B6801
:103C90007A6A127B11467A6A0C3208461146002273
:103CA00098477B687A699A63FFF73AFDEFF31083D0
:103CB00072B6FB81FB897B837B684833786A19463F
:103CC00003F074F97B8BBB81BB8913F0010F00D12A
:103CD00062B6786A01F0CEF8FB697B627B6A002BE2
:103CE000A9D17B683A6ADA66FFF754FC2837BD46EB
:103CF00080BD00BF80B584B000AF786039607B685C
:103D00009B68FB60FB68002B21D07B689B8B03F0DA
:103D10000303012B08D0FB689B68002B04D0FB68D1
:103D20009B683A6812021A60FB685B78012B0ED11F
:103D3000FB6800229A6004E0FB680433184600F038
:103D400033FDFB689B889BB21BB2002BF4DB103762
:103D5000BD4680BD80B584B000AF78607B689B684D
:103D6000FB60FB68002B09D0FB685B78012B05D159
:103D70007B689B68B833184603F0C6FA1037BD4617
:103D800080BD00BF80B584B000AFF860B960134655
:103D9000FB71FB689B8B03F48073002B00D019E050
:103DA000F86800F031F8F868B968FFF7A3FFFB790D
:103DB000002B02D1F868FFF7CDFFF86800F090FB08
:103DC000F86801F095F8FB689B8B43F480739AB216
:103DD000FB689A831037BD4680BD00BF80B483B0B6
:103DE00000AF084B1B687B607B68002B02D07B68B0
:103DF0009B8900E000231BB218460C37BD465DF8D6
:103E0000047B7047EC3D002080B582B000AF786045
:103E1000786800F009F8786800F038FD786800F0FC
:103E2000AFFB0837BD4680BD80B584B000AF786079
:103E3000EFF3108372B6BB81BB89FB817B685B6A41
:103E4000002B0CD07B685B6A184601F05BFA7B683C
:103E50005B6A184601F0BAFA7B6800225A62FB8955
:103E60007B817B8913F0010F00D162B61037BD460C
:103E700080BD00BF80B590B000AFF860B9607A60D7
:103E8000BB683B63EFF3108372B67B837B8B7B87CE
:103E90005B4B1B68FB62FB685B68FB6352E0584B43
:103EA0001B68BB62FB6B1B69BA6AD31A7B63FB6B33
:103EB0005A697B6B9A4229D8FB680433F86B194620
:103EC00003F01AF9FB6B9B687B627B6A002B19D0AD
:103ED000FB6BDB683B62FB6B00229A607B8F3B8352
:103EE0003B8B13F0010F00D162B67B6A386A9847AA
:103EF000EFF3108372B6FB82FB8A7B87FB685B68FB
:103F0000FB631FE0FB6B1B68FB631BE0BA6AFB6A89
:103F1000D31A7A6B13447B63FB6B5A697B6B9A42AF
:103F200002D2FB6B5B697B63FB6B5A697B6BD31AB9
:103F3000FB61FA693B6B9A4201D2FB693B63FB6B05
:103F40001B68FB63FB6B002BA9D1BB68002B20D146
:103F500007F11003184603F0A9F907F110031846FA
:103F6000112103F065F9FA687B6802339B00134462
:103F700000229A7107F1100318460021002200F078
:103F80001FFEFA687B6802339B00134401229A717A
:103F90002BE01B4B1A68FB6AD31A7B637A6BBB68F6
:103FA0009A4222D23B6B002B1FD0BA687B6BD31A8C
:103FB000FB613A6BFB69934228BF13463B63FA6887
:103FC0007B6802339B00134400229A713B6B4FF4D1
:103FD0007A7202FB03F3184600F0D4FFFA687B689C
:103FE00002339B00134401229A717B8FBB82BB8AF0
:103FF00013F0010F00D162B64037BD4680BD00BF4F
:104000005442002080B58AB000AF786000237B6204
:1040100007F108031846FDF74BFF38623B6A002B97
:104020000ADB07F10803184603F056FB02467B68DB
:104030001A607B687A6A5A603B6A18462837BD4620
:1040400080BD00BF80B582B000AF1848FFF7DAFF2F
:10405000174B00221A60164B1B68002B23D0144B01
:104060001B681A463B461046194600F023F90F4BD1
:104070001A683B68D31A0D4A13600C4B5A687B6868
:10408000D31A0A4A53600AE0084B5A68094B134492
:10409000064A5360054B1B68013B044A1360034BFF
:1040A0005B68002BF0DB0837BD4680BD584200201E
:1040B0005442002000CA9A3B80B500AFFDF750FE85
:1040C000FFF7C0FF80BD00BF80B582B000AFEFF347
:1040D000108372B6BB80BB88FB80FFF7B3FFFB8801
:1040E0007B807B8813F0010F00D162B60837BD4694
:1040F00080BD00BF80B58EB000AF78607B68002BBC
:1041000002D107F108037B60EFF3108372B67B8561
:104110007B8D7B8607F120031846FFF773FFF8625B
:10412000FB6A002B06DA7B6800221A607B6800229B
:104130005A609DE007F11803184600F0E5F8BA69E7
:10414000504B1B6813443B61FA694E4B5B68134448
:104150007B617B694C4A934212DD7B694B4A82FB4F
:1041600003121217DB17D31A7B633A697B6B134474
:104170003B617A697B6B464901FB03F313447B6126
:104180003A693B6A9A4207D83A693B6A9A420AD12D
:104190007A697B6A9A4206DB7B6800221A607B6838
:1041A00000225A6064E03B6A364A13607B6A354AF3
:1041B0005360344B5A68FB699A420ADA314B5A68A9
:1041C000344B13442F4A53602E4B1B68013B2D4A3E
:1041D00013602C4B5A68FB69D31A2A4A5360294B47
:1041E0001A68BB69D31A274A1360BA69254B1B6842
:1041F0001A443B69D21A7B681A60FA69214B5B68E2
:104200001A447B69D21A7B685A607B685B68002B12
:104210000BDA7B685B68DB431C4A82FB03121217D4
:10422000DB17D31ADB437B6310E07B685B68164ABD
:10423000934209DD7B685B68144A82FB0312121704
:10424000DB17D31A7B6301E000237B637B6B002BBE
:104250000ED07B681A687B6B1A447B681A607B6897
:104260005A687B6B0A4901FB03F31A447B685A6066
:104270007B8E3B853B8D13F0010F00D162B6383742
:10428000BD4680BD58420020FFC99A3BA12FB844CB
:10429000003665C400CA9A3B80B400AF044B1B686B
:1042A0000133034A1360BD465DF8047B704700BFCD
:1042B0005442002080B485B000AF786039607B68DC
:1042C0000F4A82FB03129211DB17D31A1A463B687E
:1042D0001A607A683B681B684FF47A7101FB03F33C
:1042E000D31AFB60FB68074A02FB03F23B685A6083
:1042F000002318461437BD465DF8047B704700BFA5
:10430000D34D621040420F002DE9F04F8FB000AF47
:10431000F8613B4B1B681A464FF00003C7E90C23BA
:10432000D7E90C23104619464FF47A724FF0000378
:104330001DF0CAF902460B46C7E90A23D7E90A016C
:1043400002460B469E007E617E6946EA92767E6159
:1043500093003B61D7E904234FEA431949EAD26944
:104360004FEA4218B8EB020869EB030918EB0008A2
:1043700049EB01094FEAC903FB60FB6843EA587344
:10438000FB604FEAC803BB60D7E902894046494653
:10439000D7E90C23101A63EB010102460B465E02BB
:1043A0007E607E6846EAD2567E6053023B60D7E963
:1043B00000235D0145EAD2655401A41A65EB0305AB
:1043C000241845EB01054FEA851B4BEA946B4FEA35
:1043D000841ABAEB040A6BEB050B1AEB00024BEBE9
:1043E0000103C7E90823BA6AFB691A603A6AFB69E4
:1043F0005A60002318463C37BD46BDE8F08F00BF29
:104400005442002080B586B000AF78601E4B1B6818
:10441000BB6000237B610023FB60FFF79DF8BB6856
:104420009B68002B28D0BB689B681B6B002B23D09C
:10443000BB689B68DB6A3B6100237B613B69002BA7
:1044400014D0386903F026FB78617B69002B05D115
:1044500000233B616FF00B03FB6007E0BB689B68C8
:104460001B6B786919463A6903F0A2F87B683A69D0
:10447000DA627B687A691A63FFF78CF8FB68184682
:104480001837BD4680BD00BFEC3D002080B582B02E
:1044900000AF7860786800F053FD786800F0D4F8D9
:1044A0007B683433184611F077FE786802F098FC88
:1044B000786801F00FF8786800F04EF87B689B7818
:1044C000002B07D07B681B7843F00803DAB27B68C7
:1044D0001A7002E0786800F0DDF80837BD4680BD4C
:1044E00080B584B000AF78607B689B68FB60FB6838
:1044F000002B10D0FB685B78012B06D9FB685B783A
:10450000013BDAB2FB685A7002E0F868FFF7BEFFC1
:104510007B6800229A601037BD4680BD80B582B0AE
:1045200000AF78607B689B68184602F023FC00208F
:1045300001217A6813F006FA012006217A6813F047
:1045400001FA022006217A6813F0FCF900231846CC
:104550000837BD4680BD00BF80B582B000AF78602F
:1045600006E07B68D3F8DC311846796813F096FDD5
:104570007B68D3F8DC31002BF3D10837BD4680BD12
:1045800080B483B000AF78607B689B7E072B09D135
:104590007B689A6D538A9BB29BB2013B9BB29BB2E4
:1045A00053820CE07B689B7E082B08D17B689A6D58
:1045B000138A9BB29BB2013B9BB29BB213820C3716
:1045C000BD465DF8047B704780B586B000AF78606B
:1045D0003960EFF3108372B6FB81FB89FB827B6845
:1045E0009B7E072B03D07B689B7E082B22D17B68A8
:1045F0009B6D3B617B6800229A657B689B7E072BE5
:1046000009D13B695B8A9BB29BB2013B9BB29AB2D8
:104610003B695A8208E03B691B8A9BB29BB2013B13
:104620009BB29AB23B691A827B683A68DA6678680C
:1046300003F0EAFFFB8ABB81BB8913F0010F00D1B5
:1046400062B61837BD4680BD80B584B000AF7860D3
:1046500013E07B681B69FB60FB681A687B681A6162
:10466000FB680C33184600F06BF8FB680A331846F9
:1046700000F066F8F86800F00DF87B681B69002B05
:10468000E7D17B680C33184600F05AF81037BD4666
:1046900080BD00BF80B584B000AF786003F064FED9
:1046A0000346002B04D103F0D5F90346002B14D0A8
:1046B000EFF3108372B6BB81BB89FB8178680B492D
:1046C00002F01EFC012000F0C5FEFB897B817B8986
:1046D00013F0010F00D162B604E0786803F0CCF962
:1046E00003F0C2F91037BD4680BD00BF1C3F00205B
:1046F00080B485B000AF0346FB800023FB60B7F9B0
:104700000630002B12DBFB8803F01F03BB600B4A53
:10471000BB68DB0013449B88B7F906201BB29A42A2
:1047200004D1064ABB6852F83330FB60FB68184678
:104730001437BD465DF8047B704700BF103E002073
:1047400080B483B000AF78607B68002B0AD07B68B0
:104750001B889BB21BB2002B02DB7B6801221A80F4
:10476000002301E06FF0150318460C37BD465DF8D5
:10477000047B704780B584B000AF78607868FFF73D
:10478000DFFFF860FB68002B08DAFEF74BFD0246FE
:10479000FB685B4213604FF0FF33FB60FB68184619
:1047A0001037BD4680BD00BF80B586B000AF7860D1
:1047B00000237B616FF015033B617B68002B42D0C7
:1047C000EFF3108372B6BB81BB89FB817B681B88CA
:1047D0009BB21BB247F6FF72934203D11C4879216A
:1047E000FDF708FE7B681B889BB29BB29BB201332E
:1047F0009BB29AB27B681A807B681B889BB21BB203
:10480000002B17DC134B1B687B6102E07B691B6884
:104810007B617B69002B04D07B695A6B7B689A4271
:10482000F4D17B69002B05D07B6900225A6378693B
:1048300003F0EAFE00233B61FB897B817B8913F057
:10484000010F00D162B63B6918461837BD4680BDDE
:1048500068360308E43D002080B584B000AF78607E
:104860007868FFF7A1FFF860FB68002B08DAFEF715
:10487000D9FC0246FB685B4213604FF0FF33FB60DC
:10488000FB6818461037BD4680BD00BF80B487B0B6
:1048900000AF7860EFF3108372B6FB81FB89FB8277
:1048A0007B689B7E052B0FD17B685B6B3B613B6913
:1048B0001B889BB29BB29BB201339BB29AB23B69FD
:1048C0001A807B6800225A63FB8ABB81BB8913F084
:1048D000010F00D162B61C37BD465DF8047B7047FE
:1048E00080B586B000AF78603960EFF3108372B6A0
:1048F000FB81FB89FB827B689B7E052B15D17B6846
:104900005B6B3B613B691B889BB29BB29BB20133E3
:104910009BB29AB23B691A807B6800225A637B681B
:104920003A68DA66786803F06FFEFB8ABB81BB8960
:1049300013F0010F00D162B61837BD4680BD00BF2D
:1049400080B586B000AF78600B467B8013467B70E5
:104950007A8813465B001344DB00184603F09AF88C
:10496000F860FB687B6100233B610DE07B697A782E
:104970001A757B6903F118027A611846796802F0AA
:10498000BFFA3B6901333B617A883B699A42EDDCAF
:10499000FB6818461837BD4680BD00BF80B586B09D
:1049A00000AF78600B467B8013467B707B881B01D1
:1049B000184603F06FF8F860FB687B6100233B61E9
:1049C0000DE07B697A781A737B6903F110027A61D2
:1049D0001846796802F094FA3B6901333B617A88A2
:1049E0003B699A42EDDCFB6818461837BD4680BD2E
:1049F00080B500AF204B00221A601F4B00225A6086
:104A00001E4B00221A601D4B00225A601C4B0022D4
:104A10001A601B4B00225A601A4B00221A60194B75
:104A200000225A60184B00221A60174B00225A606D
:104A3000124810210022FFF783FF0246134B1A6031
:104A40000F4808210222FFF77BFF0246104B1A6035
:104A500000F024F80B4810210022FFF79FFF0246C8
:104A60000C4B1A60084808210222FFF797FF024604
:104A7000094B1A6080BD00BF6042002068420020E0
:104A80007042002080420020784200200017002061
:104A900004170020081700200C17002080B582B0F2
:104AA00000AF4FF4A07002F0F5FF02460C4B1A6005
:104AB0000B4B1B687B6000233B600AE07B6803F1C3
:104AC00014027A601846074902F01AFA3B6801336B
:104AD0003B603B680F2BF1DD0837BD4680BD00BF52
:104AE000FC1600206042002080B584B000AF7860E2
:104AF0000A4B1B68BB604FF0FF33FB607B68002BE9
:104B000007D0B86800F00CF802467B681A600023F2
:104B1000FB60FB6818461037BD4680BDEC3D0020A9
:104B200080B588B000AF78607B689B68BB6100236C
:104B3000FB60EFF3108372B6BB82BB8AFB82BB695A
:104B40005B6AFB610BE0FB691B791A4607F10C03FA
:104B50001846114602F06CFBFB691B68FB61FB69A0
:104B6000002BF0D1FB8A7B827B8A13F0010F00D1EE
:104B700062B6FB6818462037BD4680BD80B584B05C
:104B800000AF786039603B68FB60FB689B7E062B5A
:104B900012D1FB68FF2283F85020FB68022283F8C1
:104BA0005120FB68742283F85220FB6800225A656A
:104BB000FB68184603F028FD1037BD4680BD00BFD6
:104BC00090B593B002AFF860B9607A60644B1B682F
:104BD000BB63FEF7C1FCEFF3108372B67B847B8C62
:104BE000FB86FB681C68B86BFFF79AFF03462340FF
:104BF000BB61BB69002B22D007F118031846FEF7F2
:104C000049FE0346B86B1946FEF7C6FD3863BB681C
:104C1000002B06D03B6B0433B8681946082202F01B
:104C2000C7FC3B6B1B79FB63386BFEF7F5FDFB8E16
:104C30003B843B8C13F0010F00D162B688E0FB6827
:104C40001A68BB6BDA637B68002B4ED07B681B68ED
:104C50001A464FF00003434901FB03F0002101FB1A
:104C600002F101443F48A2FB002319440B46796836
:104C7000496808464FEAE071121843EB01033A48CD
:104C80004FF00001121843EB010310461946374A52
:104C90004FF000031CF018FD02460B46C7E90A233B
:104CA000BB6A7B6200F09AF90246BB6B5A62BB6B2F
:104CB0005B6A002B18D0BB6B7B61BB6B5A6A7B694C
:104CC00000931046796A2A4A012300F01FFAB86B54
:104CD000062103F0DDF9BB6B5B6A184600F076FB3A
:104CE000BB6B00225A6204E003E0B86B062103F0BC
:104CF000CFF9BB6B0022DA63BB6B93F850301F2BEC
:104D000012D8BB6B93F85030F868194602F0DCFA01
:104D10000346002B04D0BB6B93F85030FB6306E0D6
:104D20006FF00303FB6302E06FF00A03FB63BB68F1
:104D3000002B06D0BB6B5033B8681946082202F02E
:104D400037FCFB8EFB83FB8B13F0010F00D162B6A7
:104D5000FEF720FCFB6B18464437BD4690BD00BFF4
:104D6000EC3D002000CA9A3B3F420F0040420F003A
:104D70007D4B000880B586B000AFF860B9607A60FE
:104D8000F868B9687A68FFF71BFF78617B69002BC8
:104D900008DAFEF747FA02467B695B4213604FF080
:104DA000FF337B617B6918461837BD4680BD00BF65
:104DB00080B584B000AF786039600023FB607B6809
:104DC000002B13D0FEF7C8FB7B68DB69FB6002E0B9
:104DD000FB681B68FB60FB68002B05D0FB681B7C35
:104DE0001A463B689A42F3D1FEF7D4FBFB6818469B
:104DF0001037BD4680BD00BF80B584B000AF03F062
:104E0000B3FA0346002B0BD0184802F007F9F860FC
:104E1000FB68002B25D1164802F000F9F86020E06D
:104E2000EFF3108372B63B813B897B810F4802F020
:104E3000F5F8F8607B89FB80FB8813F0010F00D147
:104E400062B6FB68002B0CD1FB68002B03D1182045
:104E500002F020FEF860FB68002B02D0FB68012204
:104E60001A75FB6818461037BD4680BD68420020A1
:104E70007042002080B586B000AF78607B681B7DF3
:104E8000002B11D1EFF3108372B6BB82BB8AFB8279
:104E90007868154902F034F8FB8A7B827B8A13F02C
:104EA000010F00D162B61CE07B681B7D022B11D183
:104EB000EFF3108372B63B823B8AFB8278680B4922
:104EC00002F01EF8FB8AFB81FB8913F0010F00D171
:104ED00062B606E07B681B7D012B02D17868FFF784
:104EE000D9FB1837BD4680BD6842002070420020C3
:104EF00080B584B000AF786002E0F868FFF7BAFFD1
:104F00007B684033184602F089F8F860FB68002B94
:104F1000F3D102E0F868FFF7ADFF7B68483318462D
:104F200002F07CF8F860FB68002BF3D17B684FF04F
:104F3000FF329A637B680022DA631037BD4680BD7A
:104F400080B584B000AF786002E0F86800F074FBD0
:104F50007B681C33184602F061F8F860FB68002B90
:104F6000F3D102E0B868FEF757FC7B68243318469B
:104F700002F054F8B860BB68002BF3D11037BD467F
:104F800080BD00BF80B586B000AF786000237B6134
:104F90007B68002B19D07B680E4AA2FB03239B0C75
:104FA0003B613B69BB603B690B4A02FB03F37A68D8
:104FB000D31A4FF47A7202FB03F3FB6007F1080384
:104FC0001846002100F092FB78617B69184618377B
:104FD000BD4680BD83DE1B4340420F0080B584B0D8
:104FE00000AFEFF3108372B63B813B897B811E4B90
:104FF0001B88042B04D803F0B7F90346002B1AD002
:105000001A4802F00BF8F860FB68002B0BD0164B27
:105010001B88013B9AB2144B1A80FB6800221A606D
:10502000FB6800221A737B89FB80FB8813F0010F59
:1050300000D162B613E07B89BB80BB8813F0010FFF
:1050400000D162B6182002F025FDF860FB68002B45
:1050500005D0FB6800221A60FB6802221A73FB6805
:1050600018461037BD4680BD90420020884200207F
:1050700080B582B000AF244B1B689B68002B40DCDE
:1050800036E0214801F0CAFF78601F4B1B68002BF7
:1050900008D01D4B1B681C4A126891687A68926898
:1050A0000A449A607B681B7B23F00103DAB27B68B9
:1050B0001A737B685B7B012B09D0022B0FD0002B6E
:1050C00000D015E07B685B680020984710E07B68A3
:1050D0005B687A68126901201146984708E07B688E
:1050E0005B687A6811697A6852690220984700BF44
:1050F000054B1B68002B04D0034B1B689B68002BDF
:10510000BFDD0837BD4680BD9442002008B480B59D
:105110008DB000AFF860B9607A60FB68002B05D0F5
:10512000FB6B022B02DCBB68002B07DAFEF77AF878
:105130000246162313604FF0FF33CAE0EFF31083EB
:1051400072B6FB82FB8AFB83FB681B7B03F00103C7
:10515000002B02D0F86800F0D5F8FB687A685A6036
:10516000FB6BDAB2FB685A7307F140033B61002323
:105170003B620BE03B691A1D3A611968FB683A6AA9
:10518000043243F822103B6A01333B623A6AFB6BFC
:105190009A42EFDB08E0FB683A6A0432002143F8E8
:1051A00022103B6A01333B623B6A012BF3DDBB6893
:1051B000002B02DC0123BB6008E0BB680133BB604D
:1051C000BB68002B02DCBB68013BBB60444B1B6827
:1051D000002B04D1F868424901F092FE67E00023F9
:1051E0007B623F4B1B68FB62FB6ABB6204E0FB6AAD
:1051F000BB62FB6A1B68FB62FB6A9B687A6A1344AA
:105200007B627B6A002B03DAFB6A1B68002BEED102
:1052100009E0FB6ABB62FB6A1B68FB62FB6A9B6876
:105220007A6A13447B627A6ABB689A4203DCFB6A3F
:105230001B68002BEDD1BA687B6A9A421CDAFB6AC4
:105240009A687B6AD31ABA681344BB60FB6A9A688F
:10525000BB68D21AFB6A9A60214B1A68FB6A9A42B1
:1052600004D1F8681E4901F06BFE20E0B86AF968C5
:105270001B4A01F07DFE1AE0BA687B6AD31ABB6054
:10528000FB6A1B68002B04D1F868154901F038FE51
:105290000DE0FB6A1B68BB61BB699A68BB68D21AE8
:1052A000BB699A60F86AF9680D4A01F061FEFB6813
:1052B000BA689A60FB681B7B43F00103DAB2FB68B3
:1052C0001A73FB8BBB82BB8A13F0010F00D162B64D
:1052D000002318463437BD46BDE8804001B0704712
:1052E0009442002080B500AF054B1B68002B06D010
:1052F000034B1B689A68013A9A60FFF7B9FE80BDBC
:105300009442002080B588B000AF78606FF015033C
:105310007B61EFF3108372B63B823B8A7B827B68B2
:10532000002B42D07B681B7B03F00103002B3CD099
:105330000023BB61234B1B68FB6104E0FB69BB617D
:10534000FB691B68FB61FB69002B03D0FA697B6872
:105350009A42F3D1FB69002B03D11B486E21FDF764
:1053600049F8FB691B68002B08D0FB691B68FA69C8
:1053700012689168FA6992680A449A60BB69002BC6
:1053800004D0B8690F4901F069FE02E00D4801F050
:1053900045FE7B6800221A607B681B7B23F00103BB
:1053A000DAB27B681A7300237B617B8AFB81FB89FD
:1053B00013F0010F00D162B67B6918462037BD4655
:1053C00080BD00BF944200208036030880B584B0C1
:1053D00000AF7860EFF3108372B6BB81BB89FB81AD
:1053E0007B681B7B03F00103002B02D07868FFF77A
:1053F00089FF7B681B7B03F00203002B0AD0FB892B
:105400007B817B8913F0010F00D162B67868FFF7CA
:1054100041F916E07B681B7B03F00403002B10D1DD
:1054200078680A4901F06CFD094B1B8801339AB278
:10543000074B1A80FB893B813B8913F0010F00D198
:1054400062B6002318461037BD4680BD8842002052
:105450009042002080B584B000AF78607B68002B5C
:1054600003D11A4B9B89FB8125E07B68012B1FD15F
:105470000023BB600CE0164ABB6802339B00134458
:105480009B79DBB2002B00D105E0BB680133BB6028
:10549000BB68002BEFDDBB68002B01DD002311E0B2
:1054A0000B4ABB6802339B0013449B88FB8102E0DC
:1054B0006FF0150306E0B7F90E301846112100F021
:1054C000C9F8034618461037BD4680BD243F00206A
:1054D000343F002080B582B000AF78607B681B6BE2
:1054E000002B04D07B681B6B1846FFF7D3F87B6852
:1054F0000022DA627B6800221A630837BD4680BD4D
:1055000080B582B000AF0C4801F088FD78607B6800
:10551000002B0CD1FFF7C2FA074801F07FFD78603D
:105520007B68002B03D105485F21FCF763FF7B6894
:1055300018460837BD4680BD6042002094360308F7
:1055400080B588B000AFF860B9607A60394B1B68ED
:10555000BB61BB699B687B61FB681F2B07D9FDF7AB
:1055600061FE0246162313604FF0FF335EE0786958
:10557000F968FFF71DFCF8617B68002B18D0FB6908
:10558000002B0CD0FB695A687B681A60FB699A682B
:105590007B685A60FB69DA687B689A6008E07B6820
:1055A00000221A607B6800225A607B6800229A60A1
:1055B000BB68002B01D1002338E0BB681B68002BBF
:1055C0000CD1FB69002B30D07B691C33F86919467C
:1055D00001F0ECFCF86900F02FF826E0FB69002BE5
:1055E00017D1FFF78DFFF861FB69002B07D1FDF79D
:1055F00019FE02460C2313604FF0FF3316E0FB68E0
:10560000DAB2FB691A747B691C33F869194601F038
:1056100077FCBB681A68FB695A60BB685A68FB690B
:105620009A60BB689A68FB69DA60002318462037E5
:10563000BD4680BDEC3D002080B582B000AF7860F3
:105640007868034901F05CFC0837BD4680BD00BFA7
:105650006042002080B586B000AF03463960FB8011
:10566000B7F90630002B02DC6FF057031CE03B68F3
:105670001F2B02D96FF0150316E0FDF76DFF3B6895
:10568000DBB23B7300237B730423BB7300233B61BA
:10569000B7F9062007F10C0310461946FEF7A2FAE7
:1056A0007861FDF777FF7B6918461837BD4680BDE6
:1056B00080B584B000AF03463960FB80B7F906308F
:1056C00018463968FFF7C6FFF860FB68002B08DA58
:1056D000FDF7A8FD0246FB685B4213604FF0FF3305
:1056E000FB60FB6818461037BD4680BD80B58CB0A6
:1056F00000AF786039607B68002B08D07B685B68FE
:10570000002B04DB7B685B682A4A934202DD6FF062
:1057100015034AE0EFF3108372B67B837B8B7B85A6
:10572000254B1B687B6207F11003184601F0BEFD94
:1057300007F11003184600217A68FFF741FA386232
:105740003B6A13F10B0F08D17B8D3B833B8B13F02E
:10575000010F00D162B6002327E03B68002B1CD06C
:1057600007F10C037868194600F016F9124B1A6815
:105770007B6AD31AFB61FB681A46FB699A4202D81E
:105780000023FB6204E0FB681A46FB69D31AFB6244
:10579000FB6A18463968FEF78DFD7B8DFB82FB8A1C
:1057A00013F0010F00D162B63B6A18463037BD4690
:1057B00080BD00BFFFC99A3B5442002080B58CB029
:1057C00000AFB9607A603B600346FB73BB6803F0CF
:1057D0000103002B32D0EFF3108372B63B853B8D73
:1057E0007B85FA7B07F114031046194600F06CF82C
:1057F000F862FB6A002B09DA7B8DFB84FB8C13F0CB
:10580000010F00D162B64FF0FF3329E007F1140217
:1058100007F11C03786811461A4600F0FBF807F1FF
:105820001C0318463968FFF761FFF8627B8DBB8463
:10583000BB8C13F0010F00D162B604E078683968C0
:10584000FFF754FFF862FB6A002B08DAFDF7EAFC69
:105850000246FB6A5B4213604FF0FF33FB62FB6A58
:1058600018463037BD4680BD80B582B000AF124BC0
:105870007B60124B00221A60104B00225A60104BC2
:1058800000221A600E4B00225A6000233B600AE09F
:105890007B6803F118027A601846084901F030FB72
:1058A0003B6801333B603B680F2BF1DD054B102259
:1058B0001A800837BD4680BD10170020884200209E
:1058C000944200209042002080B588B000AF03468B
:1058D0003960FB710023FB61FB79002B3FD107F19D
:1058E00008031846FEF710FDF861FB69002B39D15B
:1058F000EFF3108372B67B827B8A7B83BA68224B7C
:105900001B681344BB60FB681A461F4B5B6813445B
:10591000FB607B8B3B823B8A13F0010F00D162B6A8
:10592000FB681A4A934213DDFB68194A82FB031293
:105930001217DB17D31A7B61BA687B691344BB600B
:10594000FB6819467B69134A02FB03F3CB1AFB6021
:10595000BA683B681A60FA683B685A6002E06FF008
:105960001503FB61FB69002B08DAFDF75BFC0246BF
:10597000FB695B4213604FF0FF33FB61FB69184624
:105980002037BD4680BD00BF58420020FFC99A3B6A
:10599000A12FB84400CA9A3B80B584B000AF7860AC
:1059A00039607B681B681A464FF00003164901FBFB
:1059B00003F0002101FB02F101441348A2FB002384
:1059C00019440B467968496808464FEAE071121895
:1059D00043EB0103C7E90223D7E902230B484FF049
:1059E0000001121843EB010310461946084A4FF014
:1059F00000031BF04DFE02460B463B681A60002375
:105A000018461037BD4680BD00CA9A3B3F420F0082
:105A100040420F0080B487B000AFF860B9607A6090
:105A2000FB681A68BB681B689A4204D200237B613A
:105A300000233B612EE0FB681A68BB681B689A4232
:105A40000AD1FB685A68BB685B689A4204DC002391
:105A50007B6100233B611DE0FB681A68BB681B6823
:105A6000D31A7B61FB685A68BB685B689A420BDAA1
:105A7000FB685A680D4B1344BA6852689B1A3B6125
:105A80007B69013B7B6105E0FB685A68BB685B682A
:105A9000D31A3B617B687A691A607B683A695A60FD
:105AA0001C37BD465DF8047B704700BF00CA9A3BB7
:105AB00080B584B000AF78600B46FB7078681DF04D
:105AC00079FBF860FB68002B04DAFB78002B01D02F
:105AD000FB6804E0FB6813F1040FEFD0FB68184685
